:10000000F5C300001AC4000018C4000016C40000A4
:1000100014C4000012C4000010C400000EC400008C
:100020000CC400000AC400000C94E5090C946B0A8F
:1000300004C4000002C4000000C40000FEC30000AD
:10004000FCC30000FAC30000F8C30000F6C30000C0
:10005000F4C30000F2C30000F0C300000C9434119C
:10006000ECC30000EAC30000E8C30000E6C30000E0
:10007000E4C30000E2C30000E0C30000DEC30000F0
:10008000DCC30000DAC30000D8C30000D6C3000000
:100090000C94D31DD2C30000D0C30000CEC3000017
:1000A000CCC30000CAC30000C8C300000403090495
:1000B0002203550053004200200049004F00200059
:1000C00042006F00610072006400200020002000E8
:1000D0002000180355006E006B006E006F00770063
:1000E0006E0020002000200020001201000200000D
:1000F00000402509641F00010102000112010002F5
:10010000020000402509641F00010102000100C136
:100110008081C105010902A1010901A10085010534
:10012000091901290315002501950375018102951F
:10013000017505810305010930093109381581254B
:100140007F750895038106C0C005010906A10185D8
:1001500002050719E029E7150025017501950881B9
:10016000029501750881039506750815002565053A
:1001700007190029658100C009040200010300007D
:1001800000092101010001226500070584034000E8
:100190000100000000000000002A2B2800000000E1
:1001A000000000000000000000000000000000004F
:1001B000002C9EB4A0A1A2A434A6A7A5AE362D37CC
:1001C00038271E1F20212223242526B333B62EB71D
:1001D000B89F8485868788898A8B8C8D8E8F909135
:1001E00092939495969798999A9B9C9D2F3130A3C2
:1001F000AD350405060708090A0B0C0D0E0F10118A
:1002000012131415161718191A1B1C1DAFB1B0B50F
:100210000000000000240027002A002D003000000C
:10022000000000250028002B002E003100000000F7
:10023000002300260029002C002F000404040404DD
:100240000304050202020204030202020206060679
:10025000060606040402020204040802011040809B
:10026000401020408040800802040180402010029D
:10027000011080102040400000000200080E000025
:10028000030401000B00000000000000000000005B
:100290000000000000070605040100080A0B0C0D11
:1002A00009080B0002020201000904000001020219
:1002B00000000524001001052401010104240206A8
:1002C0000524060001070581031000400904010010
:1002D000020A000000070502024000000705830231
:1002E00040000000000000003E5B4F5B3E3E6B4F55
:1002F0006B3E1C3E7C3E1C183C7E3C181C577D57B8
:100300001C1C5E7F5E1C00183C1800FFE7C3E7FF63
:100310000018241800FFE7DBE7FF30483A060E26F6
:1003200029792926407F050507407F05253F5A3C4E
:10033000E73C5A7F3E1C1C08081C1C3E7F14227F91
:1003400022145F5F005F5F06097F017F0066899569
:100350006A606060606094A2FFA29408047E040852
:1003600010207E201008082A1C08081C2A08081ED5
:10037000101010100C1E0C1E0C30383E3830060EBB
:100380003E0E06000000000000005F0000000700B5
:100390000700147F147F14242A7F2A122313086471
:1003A0006236495620500008070300001C22410015
:1003B0000041221C002A1C7F1C2A08083E08080055
:1003C00080703000080808080800006060002010F5
:1003D0000804023E5149453E00427F4000724949AF
:1003E00049462141494D331814127F102745454590
:1003F000393C4A49493141211109073649494936B1
:10040000464949291E000014000000403400000045
:100410000814224114141414140041221408020177
:100420005909063E415D594E7C1211127C7F4949A3
:1004300049363E414141227F4141413E7F49494940
:10044000417F090909013E414151737F0808087F36
:1004500000417F41002040413F017F081422417F3D
:10046000404040407F021C027F7F0408107F3E41D5
:1004700041413E7F090909063E4151215E7F09192C
:100480002946264949493203017F01033F40404044
:100490003F1F2040201F3F4038403F631408146333
:1004A00003047804036159494D43007F41414102EF
:1004B00004081020004141417F0402010204404031
:1004C000404040000307080020545478407F2844EF
:1004D00044383844444428384444287F38545454D9
:1004E0001800087E090218A4A49C787F08040478E8
:1004F00000447D40002040403D007F102844000023
:10050000417F40007C047804787C080404783844F7
:10051000444438FC1824241818242418FC7C0804AB
:100520000408485454542404043F44243C404020CC
:100530007C1C2040201C3C4030403C442810284477
:100540004C9090907C4464544C4400083641000028
:1005500000770000004136080002010204023C2638
:1005600023263C1EA1A161123A4040207A385454FF
:100570005559215555794121545478412155547884
:100580004020545579400C1E527212395555555918
:10059000395454545939555454580000457C41003D
:1005A00002457D420001457C40F0292429F0F028D5
:1005B0002528F07C545545002054547C547C0A096D
:1005C0007F4932494949323248484832324A4848DC
:1005D000303A4141217A3A42402078009DA0A07DE6
:1005E00039444444393D4040403D3C24FF242448A4
:1005F0007E4943662B2FFC2F2BFF0929F620C0884C
:100600007E090320545479410000447D413048481C
:100610004A32384040227A007A0A0A727D0D193136
:100620007D2629292F28262929292630484D402092
:10063000380808080808080808382F10C8ACBA2F6E
:10064000102834FA00007B000008142A1422221417
:100650002A1408AA005500AAAA55AA55AA00000003
:10066000FF00101010FF00141414FF001010FF0002
:10067000FF1010F010F0141414FC001414F700FF15
:100680000000FF00FF1414F404FC141417101F10D2
:10069000101F101F1414141F00101010F000000081
:1006A000001F101010101F10101010F0100000008C
:1006B000FF101010101010101010FF10000000FF9D
:1006C000140000FF00FF00001F10170000FC04F4DE
:1006D00014141710171414F404F40000FF00F71496
:1006E000141414141414F700F7141414171410101D
:1006F0001F101F141414F4141010F010F000001F39
:10070000101F0000001F14000000FC140000F01077
:10071000F01010FF10FF141414FF141010101F001D
:10072000000000F010FFFFFFFFFFF0F0F0F0F0FF1F
:10073000FFFF0000000000FFFF0F0F0F0F0F3844F6
:100740004438447C2A2A3E147E02020606027E02B7
:100750007E0263554941633844443C04407E201E78
:100760002006027E020299A5E7A5991C2A492A1CA7
:100770004C7201724C304A4D4D303048784830BC94
:10078000625A463D3E494949007E0101017E2A2ABE
:100790002A2A2A44445F444440514A444040444A3F
:1007A00051400000FF0103E080FF000008086B6B70
:1007B000083612362436060F090F060000181800F6
:1007C00000001010003040FF0101001F01011E0059
:1007D000191D1712003C3C3C3C00000000002206A2
:1007E0002209E70B8312521CFE221D0611241FBE94
:1007F000CFEFDAE0DEBFCDBF15E0A0E0B1E0E2EA86
:10080000FBE402C005900D92A43DB107D9F717E0B3
:10081000A4EDB5E001C01D92AC38B107E1F717E0D7
:10082000CAEED7E004C02297FE010E948A25CE3D81
:10083000D107C9F745D40C94C525E2CBCF93DF93FC
:10084000BC018230910510F462E070E0A0918A074B
:10085000B0918B07ED01E0E0F0E040E050E021C016
:10086000888199818617970769F48A819B813097DF
:1008700019F09383828304C090938B0780938A0737
:10088000FE0134C06817790738F44115510519F095
:100890008417950708F4AC01FE018A819B819C01B5
:1008A000E9012097E9F641155105A9F1CA01861B16
:1008B000970B049708F4BA01E0E0F0E02AC08D91AC
:1008C0009C91119784179507F9F46417750781F4C3
:1008D00012968D919C911397309719F09383828390
:1008E00004C090938B0780938A07FD0132964CC019
:1008F000CA01861B970BFD01E80FF91F61937193E5
:1009000002978D939C9340C0FD01828193819C014D
:10091000D9011097A1F68091880790918907892BBA
:1009200041F480913B0190913C0190938907809321
:10093000880740913D0150913E014115510541F418
:100940004DB75EB78091390190913A01481B590B20
:100950002091880730918907CA01821B930B861763
:10096000970780F0AB014E5F5F4F8417950750F0FB
:10097000420F531F5093890740938807F9016193F1
:10098000719302C0E0E0F0E0CF01DF91CF910895D4
:10099000CF93DF93009709F450C0EC0122971B829C
:1009A0001A82A0918A07B0918B07109709F140E055
:1009B00050E0AC17BD0708F1BB83AA83FE0121916B
:1009C0003191E20FF31FAE17BF0779F48D919C911F
:1009D0001197280F391F2E5F3F4F398328831296B6
:1009E0008D919C9113979B838A834115510571F4D6
:1009F000D0938B07C0938A0720C012968D919C914B
:100A00001397AD01009711F0DC01D3CFFA01D38326
:100A1000C28321913191E20FF31FCE17DF0769F4F2
:100A200088819981280F391F2E5F3F4FFA0131834A
:100A300020838A819B8193838283DF91CF91089564
:100A4000A0E0B0E0E6E2F5E00C9490256C010097A0
:100A500021F4CB01F3DE6C01BDC08EEF882E8FEF49
:100A6000982E8C0C9D1C8601060F171F0815190562
:100A700008F4AEC0F401A081B181A617B707B0F0A9
:100A8000A530B10508F4A6C0CD01049786179707D5
:100A900008F4A0C01297A61BB70BF801A193B1935D
:100AA000D4016D937C93CF0173DF94C07B01EA1A6C
:100AB000FB0AEEEFFFEFEE0EFF1E36016A0E7B1E05
:100AC000C0918A07D0918B0744245524AA24BB24C3
:100AD0004AC0C615D705E1F5488159814E155F0515
:100AE000B8F1CA0104978E159F05B0F41296A40FB1
:100AF000B51FF401B183A0832A813B8141145104C5
:100B000031F0D20113963C932E93129763C0309329
:100B10008B0720938A075EC08A819B81F8019383AB
:100B20008283425050404E195F09518340834114E3
:100B3000510431F0D20113961C930E93129704C006
:100B400010938B0700938A07F4017183608342C07E
:100B500088819981A816B90608F45C012E018A8162
:100B60009B819C01E901209709F0B3CF8091880710
:100B70009091890786159705E9F4A616B706D0F473
:100B800020913D0130913E012115310541F42DB7F1
:100B90003EB78091390190913A01281B390B021719
:100BA0001307B0F41093890700938807D4016D935D
:100BB0007C9310C0CB0142DEEC01009749F0F401B8
:100BC00040815181B6010CD0C601E2DE6E0102C047
:100BD000CC24DD24C601CDB7DEB7E0E10C94AC2512
:100BE000FB01DC0102C001900D9241505040D8F74A
:100BF0000895FB01DC0101900D920020E1F70895BA
:100C00008130910581F46F5F7F4FB1F484ED95E001
:100C100064E04CE026E00E943B188FE296E060E042
:100C200071E00C94D50F892B39F46F5F7F4F21F45D
:100C30008FE296E00C940510089580E090E06FEF4D
:100C40007FEFDECF81E090E06FEF7FEFD9CF809133
:100C5000470160E00E94D310809147010E94051176
:100C6000892B19F022E030E01AC08091470161E041
:100C70000E94D310809147010E940511892B41F0F9
:100C80008091470160E00E94D31020E030E007C06F
:100C90008091470160E00E94D31021E030E0C9015B
:100CA0000895EF92FF920F931F93CF93DF93E091FC
:100CB0002706F0912806EE0FFF1FE150FA4F8091B2
:100CC000290690912A0620813181821B930B9093F3
:100CD0002A068093290682E10E940E106AE070E0E5
:100CE00080E090E00E948A1100912706109128066A
:100CF00082E10E940E10000F111F01501A4FF801DF
:100D0000918380832091270630912806F901EE0F08
:100D1000FF1FE150FA4F0190F081E02D80912906EC
:100D200090912A06E80FF91FF0932A06E09329060E
:100D30002F5F3F4F3093280620932706243131053B
:100D400024F01092280610922706CF0164E170E08B
:100D50000E943F2570932C0660932B0684ED95E04E
:100D60000E94FE1584ED95E060E070E040E050E008
:100D70000E94F71B60912B0670912C06882777FD47
:100D80008095982F0E94052424E13EEA4FE15BE321
:100D90000E94B9247B018C0184ED95E064E00E94FF
:100DA000FD1BC801B701A80197010E940223AB01F6
:100DB000BC0184ED95E022E030E00E940A0F47DF9D
:100DC000892B61F584ED95E062E00E94FD1B84EDC6
:100DD00095E061E071E00E941B0F809137069091D1
:100DE0003806019709F043C080912D0660E00E940B
:100DF000D3106AE070E080E090E00E948A11809158
:100E0000450161E00E94D3106AE070E080E090E06C
:100E10000E948A118091450160E027C018DFEC0133
:100E20008130910579F484ED95E062E00E94FD1B2C
:100E300084ED95E06BE071E0FED7D0933806C09367
:100E4000370610C084ED95E062E00E94FD1B84ED42
:100E500095E064E171E0EFD781E090E0909338068F
:100E60008093370680912D0661E00E94D31087E1C0
:100E70000E940E106AE070E080E090E00E948A110B
:100E800087E10E940E107C0184ED95E061E00E94F4
:100E9000FD1B0027F7FC0095102FC801B7010E9429
:100EA000052420E030EF4BE150E40E94B92420E01B
:100EB00030E04AEF53E40E94012320E030E040E2BA
:100EC00051E40E946A23AB01BC0184ED95E022E06D
:100ED00030E09ED784ED95E06CE171E0B7D60E94DA
:100EE0003D22BC0184ED95E04AE050E09DD60E9491
:100EF0003722BC0184ED95E04AE050E095D60E948F
:100F00003122BC0184ED95E04AE050E08DD684EDBD
:100F100095E06CE171E09AD684ED95E06FE276E0C1
:100F20009BD784ED95E06CE171E090D684ED95E07F
:100F3000609136064AE050E01DD680913F010E9444
:100F40000511892BA9F084ED95E06EE171E07ED664
:100F50008091450161E00E94D3106AE070E080E07A
:100F600090E00E948A118091450160E00E94D310B8
:100F7000809141010E940511892B29F084ED95E0B3
:100F800060E271E063D6809143010E940511892BD4
:100F9000A9F084ED95E062E271E058D680912D06CB
:100FA00061E00E94D3106AE070E080E090E00E946F
:100FB0008A1180912D0660E00E94D31084ED95E0A7
:100FC0000E94961664E670E080E090E00E948A112C
:100FD000DF91CF911F910F91FF90EF90089580E0E6
:100FE0000E940B1080913F0160E00E9446108091AA
:100FF000410160E00E9446108091430160E00E9440
:1010000046108091450161E00E94461080912D06B6
:1010100061E00E94461084ED95E062E04CE321E03F
:101020000E94411784ED95E00E94961668EE73E0E9
:1010300080E090E00E948A1184ED95E00E94FE1508
:1010400084ED95E064E00E94FD1B84ED95E061E095
:1010500070E00E94031C84ED95E060E00E94091C92
:101060000E943F22882329F48FE296E064E271E037
:1010700004C08FE296E067E271E0B0D780EE92E2C2
:101080000E941C22EFEFF5E01192119286E0E73208
:10109000F807D1F78AEA96E060E070E00E944C130E
:1010A0008A3018F01092360602C0809336064091BE
:1010B00036064F5F8AEA96E060E070E00C945313C6
:1010C000CF93DF930E94E31181E496E0BCD087DFE9
:1010D000C0E0D0E0E6DD2097E9F30E940000FACFFF
:1010E000282F80913B068823C1F057FF1AC015C0F6
:1010F000289890933A068091F1008193E217F307C4
:10110000B9F74115510539F08091F200882319F49F
:101110008BE68093E800AFBF02C04FEF5FEFCA01DC
:101120000895AFB7F89427702093E9008091F200FA
:10113000282F30E0241735070CF4A901FB019B018F
:10114000240F311D94E6DACFDF93CF930F92CDB702
:10115000DEB7BE016F5F7F4F41E050E0C1DF019716
:1011600019F02FEF3FEF03C08981282F30E0C9012C
:101170000F90CF91DF910895FF920F931F93F82E58
:10118000142F052F40913E0650913F06212F302FFE
:10119000C901DC01FB016EEF29C0F7FE02C094918A
:1011A00001C0908120913C0630913D0624173507FF
:1011B000ACF48091E8008570E1F38091E80082FF53
:1011C00003C02FEF3FEF17C09093F100C9010196C4
:1011D0008F739070892B11F46093E8002F5F3F4F5D
:1011E00030933D0620933C06119731961097A9F64F
:1011F000812F902F9C01C9011F910F91FF9008959D
:101200009C018091E80082FFFCCFF901260F311D7F
:1012100003C08091F1008193E217F307D1F728987A
:1012200084E680933A068BEF8093E800CB01089523
:101230008093E9008091F200882319F08AE380937B
:10124000E8000895089510923B0681E08093D7004E
:1012500080EA8093D80082E189BD09B400FEFDCF09
:1012600061E070E080E090E00E948A1180E9809364
:10127000D8008CE08093E2001092E000559A209A0A
:1012800008955F926F927F928F929F92AF92BF92DA
:10129000CF92DF92EF92FF920F931F93CF93DF9342
:1012A000E82E842E752E80913B06882371F18B01E8
:1012B000242F352FC901EC017AEFF72E67E0962E27
:1012C0009E2050E4552E8E2D90E040E2A42EB12CAD
:1012D000A822B9223AE3632E20E4C22ED12CC822E0
:1012E000D92257C09FB7F8949092E9008091E80006
:1012F00085FD02C020E004C08091F200252D281B4E
:101300009FBF222359F4FA9419F42FEF3FEF4CC0FA
:1013100061E070E080E090E0FDD73BC0822F90E07C
:10132000C817D9070CF42C2FC21BD1094FB7F8945A
:101330009092E900A114B10421F406C01092F100CA
:1013400021502223D9F719C0E7FC03C0F801922FDE
:1013500010C0C801322F06C0FC010196E491E09351
:10136000F10031503323C1F706C081918093F10021
:1013700091509923D1F7020F111D8091E80085FF4C
:1013800005C0209729F4C114D10411F06092E8003F
:101390004FBF209709F0A6CF5D9884E68093390669
:1013A000282D372DC9019C01C901DF91CF911F91D3
:1013B0000F91FF90EF90DF90CF90BF90AF909F90F4
:1013C0008F907F906F905F9008951F920F920FB64D
:1013D0000F9211242F933F934F935F936F937F93BB
:1013E0008F939F93AF93BF93EF93FF938091E1000F
:1013F0001092E100982F83FF0FC01092E90081E066
:101400008093EB001092EC0082E38093ED00109249
:101410003B0688E08093F00092FF34C083E0809325
:10142000E9008091F200882319F08AE38093E800B4
:101430008FB7F89492E09093E9009091F2008FBFFB
:10144000992321F08CE996E00E94C512809139061B
:10145000882351F08091390681508093390680911C
:101460003906882309F45D9A80913A06882351F061
:1014700080913A06815080933A0680913A068823FB
:1014800009F4289AFF91EF91BF91AF919F918F91AD
:101490007F916F915F914F913F912F910F900FBE70
:1014A0000F901F9018950F931F93DF93CF930F9278
:1014B000CDB7DEB719828E010F5F1F4FC8010E94A2
:1014C000EB12C80177D2898190E00F90CF91DF9124
:1014D0001F910F9108951F920F920FB60F92112432
:1014E000EF92FF921F932F933F934F935F936F93CE
:1014F0007F938F939F93AF93BF93EF93FF93DF936C
:10150000CF93CDB7DEB76197DEBFCDBF1092E900B4
:101510008091E80083FF08C1FE0131969E01275F9C
:101520003F4F03C08091F1008193E217F307D1F799
:10153000289884E680933A0682EF8093E8009981A8
:1015400097FF05C08091E80080FFFCCF03C08EEFBD
:101550008093E800292F30E0C90180769070892BB4
:1015600009F0BDC08A81882329F41092F1001092FD
:10157000F100CFC0813009F4CCC0833009F4C9C078
:10158000853049F48091E80080FFFCCF8B81806832
:101590008093E300BEC0863009F077C01C81EF80E5
:1015A000F8841230A9F51092E90010923D061092CD
:1015B0003C0610923F0610923E0675DF99E0FE0150
:1015C0003996DF01292F1D922A95E9F799871A8705
:1015D00091E09E8790E8988B9AEF998B20913C063A
:1015E00030913D06275F3F4F3C872B878D871092B8
:1015F000E90010923D0610923C06F0923F06E09200
:101600003E0680E0BF0149E050E0B6DD4CDF81C01E
:101610001092E90010923D0610923C06F0923F06AF
:10162000E0923E06123239F482E290E0BDD1892B7D
:1016300009F473C06EC0113079F488E0E816F10443
:1016400019F481E08093400680914006882309F0D8
:1016500068C0EAEEF0E013C0133009F05EC08B8181
:10166000882319F4ECEAF0E00AC0823019F4E0EBC8
:10167000F0E005C0813009F050C0E2EDF0E04491A7
:1016800080E8BF0150E078DD44C0873009F445C0F0
:10169000883021F481E08093F1003BC08930C9F5A6
:1016A00023703070232BC9F5EFE0F1E091E031E0D9
:1016B00026E39093E9003093EB0084918093EC0053
:1016C0002093ED009F5F3196953099F78EE78093D8
:1016D000EA001092EA008B8180933B061AC08F814A
:1016E00098851092E90010923D0610923C06909366
:1016F0003F0680933E068D81882321F4CE0101961A
:1017000075D705C0823049F4CE01019626D08823D2
:1017100021F08EEF8093E80007C081E28093EB0018
:1017200003C0ECEFF0E0ABCF6196DEBFCDBFCF9151
:10173000DF91FF91EF91BF91AF919F918F917F9139
:101740006F915F914F913F912F911F91FF90EF907B
:101750000F900FBE0F901F901895FC019181808112
:10176000813A31F4913089F080E0933089F40DC0F2
:10177000813269F49B3021F482818093490105C054
:101780009A3029F4828180934A0181E0089580E0B3
:101790000895EF92FF920F931F938C01E62EDC01C8
:1017A000ED91FC910480F581E02D0995F82ED8018A
:1017B000ED91FC910680F781E02DC8016E2D099511
:1017C0008F2D90E01F910F91FF90EF900895109250
:1017D000420610924606109245068CE695E09093DC
:1017E0004406809343060895EF92FF920F931F9350
:1017F000DF93CF930F92CDB7DEB789838B017A0148
:1018000084E0BE016F5F7F4F41E050E03ADD84E449
:10181000B801A70136DD0F90CF91DF911F910F9195
:10182000FF90EF90089582E048E050E0DDCFFC01AA
:1018300016821782108611861286138614823496B9
:10184000BF01F1CFDC01683810F0685829C0E62FDD
:10185000F0E067FF13C0E058F04081E090E002C084
:10186000880F991FEA95E2F7809514962C911497AA
:10187000282314962C93149760E012C0EF56FE4F65
:101880006491662319F420E030E01CC067FF08C0B3
:1018900014968C9114978D7F14968C9314976F7770
:1018A000FD0190E0662321F08681861709F41682F7
:1018B0009F5F31969630B1F7CD011496BD01B3DF2D
:1018C00021E030E0C9010895CF93DF93DC0168384F
:1018D00010F0685825C0E62FF0E067FF12C0E0580E
:1018E000F04081E090E002C0880F991FEA95E2F78E
:1018F00014962C911497282B14962C93149760E02F
:101900000FC0EF56FE4F64916623D9F167FF08C000
:1019100014968C911497826014968C9314976F7719
:1019200016968C9116978617A9F117968C91179792
:10193000861781F118968C911897861759F1199688
:101940008C911997861731F11A968C911A978617F0
:1019500009F11B968C911B978617E1F0ED01E0E0F1
:10196000F0E09E2F8E81882321F4EA0FFB1F66830F
:1019700006C09F5F31962196E630F10591F79630CB
:1019800049F481E090E013969C938E93129720E0A7
:1019900030E006C0CD011496BD0145DF21E030E006
:1019A000C901DF91CF91089580E863E171E045E6D8
:1019B00050E0E2CBFC0180818F5F808380E868E7A4
:1019C00071E049E150E0D8CBCF92DF92EF92FF92E5
:1019D0000F931F93CF93DF937C016B018A01C0E0CB
:1019E000D0E00FC0D6016D916D01D701ED91FC9152
:1019F0000190F081E02DC7010995C80FD91F015052
:101A000010400115110571F7CE01DF91CF911F91A3
:101A10000F91FF90EF90DF90CF900895EF92FF929B
:101A20000F931F938C01DC01ED91FC910190F081EB
:101A3000E02D6DE009957C01D801ED91FC910190BC
:101A4000F081E02DC8016AE009959C012E0D3F1D33
:101A5000C9011F910F91FF90EF900895CF93DF93ED
:101A6000EC016115710519F420E030E00FC0DB01D5
:101A70000D900020E9F71197A61BB70BE881F981BB
:101A80000280F381E02DAD0109959C01C901DF9130
:101A9000CF9108954F925F927F928F929F92AF92D3
:101AA000BF92CF92DF92EF92FF920F931F93DF933B
:101AB000CF93CDB7DEB7A1970FB6F894DEBF0FBEB8
:101AC000CDBF2C01742ECB01223008F42AE019A2DC
:101AD00031E2C32ED12CCC0EDD1E822E9924AA24F5
:101AE000BB24672D752FA50194010E945225790111
:101AF0008A01C801B701A50194010E942025472D44
:101B0000461B0894C108D1084A3014F4405D01C056
:101B1000495CF6014083E114F1040105110521F04F
:101B20007E2C5F2DC801DDCFC201B60197DFA196E3
:101B30000FB6F894DEBF0FBECDBFCF91DF911F91DE
:101B40000F91FF90EF90DF90CF90BF90AF909F905C
:101B50008F907F905F904F900895DC0121153105A3
:101B600041F4ED91FC910190F081E02D642F0995F5
:101B7000089590CFCF92DF92EF92FF920F931F9331
:101B80006C01E62E9A01FF2400E010E0B801A701E5
:101B9000E4DF8C01C60142DF080F191FC8011F9145
:101BA0000F91FF90EF90DF90CF900895CF92DF924A
:101BB000EF92FF920F931F93CF93DF93EC016A0193
:101BC0007B012115310541F4E881F9810190F08113
:101BD000E02D642F09951DC02A303105C9F477FF27
:101BE00016C0E881F9810190F081E02D6DE2099540
:101BF0008C0144275527BA014C195D096E097F09EC
:101C0000CE012AE047DF9801280F391F03C02AE0E0
:101C100041DF9C01C901DF91CF911F910F91FF908E
:101C2000EF90DF90CF900895EF92FF920F931F9364
:101C30007B019A010027F7FC0095102FB801A7013E
:101C4000B5DF1F910F91FF90EF90089507CF089592
:101C50007F928F929F92AF92BF92CF92DF92EF923C
:101C6000FF920F931F93CF93DF934C017A018B0167
:101C7000722ECB01BA01A80197010E941C2588236E
:101C800021F0C4016BE271E021C0C0E0D0E0570157
:101C90006801E894D7F8C601B5012FEF3FEF4FE791
:101CA0005FE70E941C25882351F4C601B5012FEF80
:101CB0003FEF4FE75FE70E946623181614F0C1E07C
:101CC000D0E0219731F0C4016FE271E0C7DEEC0192
:101CD00090C0C801B7012FEF3FEF4FE75FE40E94CC
:101CE000B524181654F0C801B7012FEF3FEF4FE7A6
:101CF0005FEC0E946623882324F4C40163E371E04F
:101D0000E5CFC801B70120E030E040E050E00E949C
:101D1000662387FD03C0C0E0D0E00EC0D401ED9182
:101D2000FC910190F081E02DC4016DE20995EC0178
:101D300017FB109517F9109520E030E040E05FE3C5
:101D4000DD240BC0CA01B90120E030E040E251E4DB
:101D50000E946A239B01AC01D394D71498F3C80165
:101D6000B7010E9402235B016C010E94D7237B0113
:101D70008C01C401B801A7012AE030E0EEDEC80FF3
:101D8000D91F772031F0C40167E371E067DEC80F27
:101D9000D91FC801B7010E9403249B01AC01C601F1
:101DA000B5010E94012323C020E030E040E251E46D
:101DB0000E94B9247B018C010E94D2235B016C013B
:101DC000CC24B7FCC094DC2CC401B601A5012AE0E8
:101DD00030E0ECDEC80FD91FC601B5010E94052412
:101DE0009B01AC01C801B7010E9401237A947720BE
:101DF000D9F6CE01DF91CF911F910F91FF90EF9017
:101E0000DF90CF90BF90AF909F908F907F9008957C
:101E10001FCF0895EF92FF920F931F937C0118DF5D
:101E20008C01C701FBDD080F191FC8011F910F911D
:101E3000FF90EF900895EF92FF920F931F937C0114
:101E40000DDE8C01C701EADD080F191FC8011F91C3
:101E50000F91FF90EF900895AF92BF92CF92DF92D3
:101E6000EF92FF920F931F93CF93DF935C016B016F
:101E7000EE24FF24C0E0D0E00FC0D501ED91FC912D
:101E800000811181C601BE0119D0682FC501F8017A
:101E90000995E80EF91E2196F60184819581C817EF
:101EA000D90758F3C701DF91CF911F910F91FF9090
:101EB000EF90DF90CF90BF90AF900895FC018481A8
:101EC00095816817790748F40190F081E02D3097EB
:101ED00021F0E60FF71F8081089580E008950F93A9
:101EE0001F93CF93DF93EC018B016F5F7F4F88814E
:101EF00099810E942005009711F480E005C0998324
:101F000088831B830A8381E0DF91CF911F910F911A
:101F10000895CF93DF93EC0188819981892B29F073
:101F20008A819B818617970758F4CE01D8DF8823D2
:101F300041F08C819D81892B19F4E881F98110820F
:101F400081E0DF91CF910895CF93DF93EC018881F9
:101F50009981009711F00E94C804198218821D828D
:101F60001C821B821A82DF91CF910895EF92FF921B
:101F70000F931F93CF93DF93EC017B018A01BA018A
:101F8000C8DF882319F4CE01DFDF07C01D830C836F
:101F900088819981B7010E94F905CE01DF91CF9127
:101FA0001F910F91FF90EF900895CF93DF93EC0175
:101FB000198218821B821A821D821C821E82611560
:101FC000710549F0DB010D900020E9F71197A61B80
:101FD000B70BAD01CBDFDF91CF9108950F931F9326
:101FE000182F092F6115710551F0DB010D900020AC
:101FF000E9F71197A61BB70BAD01B8DF01C0A4DF4D
:10200000812F902F1F910F910895FC018081918164
:102010000C94C804089580934B010895823108F010
:102020008251E82FF0E0EB56FD4FE49120917B00C8
:102030008E2F86958695869590E08170907035E01C
:10204000880F991F3A95E1F72F7D282B20937B006D
:10205000E77080914B018295880F880F807C8E2BD2
:1020600080937C0080917A00806480937A008091D4
:102070007A0086FDFCCF2091780040917900942F62
:1020800080E030E0282B392BC9010895CF93DF93EE
:10209000482F50E0CA01875A9D4FFC013491455C9E
:1020A0005D4FFA018491882369F190E0880F991FB0
:1020B000FC01EF5EFD4FA591B491FC01E15EFD4F87
:1020C000C591D491662351F42FB7F8948C91932F36
:1020D000909589238C93888189230BC0623061F4A9
:1020E0002FB7F8948C91932F909589238C938881A6
:1020F000832B88832FBF06C09FB7F8948C91832BC6
:102100008C939FBFDF91CF910895883071F1893012
:1021100068F4823031F1833020F4813009F042C01C
:102120001DC0833089F08430E9F512C08B3059F13D
:102130008C3028F48930E9F08A30A1F51EC08C304B
:1021400031F18E3079F529C0809180008F7703C0FE
:10215000809180008F7D80938000089584B58F7773
:1021600002C084B58F7D84BD0895809190008F77E3
:1021700007C0809190008F7D03C080919000877F81
:102180008093900008958091C0008F7703C0809164
:10219000C0008F7D8093C00008958091C200877F2A
:1021A0008093C2000895FF920F931F93F62E482F3D
:1021B00050E0CA0189589D4FFC012491CA01875AF9
:1021C0009D4FFC011491455C5D4FFA010491002381
:1021D000C1F0222311F0822F98DFE02FF0E0EE0F04
:1021E000FF1FE15EFD4FA591B4919FB7F894FF20CA
:1021F00021F48C911095812302C08C91812B8C93BA
:102200009FBF1F910F91FF9008950F931F93482F29
:1022100050E0CA0189589D4FFC012491CA01875A98
:102220009D4FFC010491455C5D4FFA01149111230F
:1022300019F420E030E014C0222311F0822F65DF72
:10224000812F90E0880F991F835D9D4FFC01A59120
:10225000B4918C9120E030E0802311F021E030E057
:10226000C9011F910F9108951F920F920FB60F92FF
:1022700011242F933F938F939F93AF93BF9380919C
:10228000530690915406A0915506B0915606309190
:1022900057060196A11DB11D232F2D5F2D3720F06C
:1022A0002D570196A11DB11D20935706809353060B
:1022B00090935406A0935506B093560680914F060E
:1022C00090915006A0915106B09152060196A11D21
:1022D000B11D80934F0690935006A0935106B09382
:1022E0005206BF91AF919F918F913F912F910F9087
:1022F0000FBE0F901F9018958FB7F894209153063A
:102300003091540640915506509156068FBFB90141
:10231000CA0108959B01AC017FB7F89480914F06E4
:1023200090915006A0915106B091520666B5A89BB7
:1023300005C06F3F19F00196A11DB11D7FBFBA2FD7
:10234000A92F982F8827860F911DA11DB11D62E02E
:10235000880F991FAA1FBB1F6A95D1F7BC012DC01A
:10236000FFB7F89480914F0690915006A0915106C6
:10237000B0915206E6B5A89B05C0EF3F19F0019653
:10238000A11DB11DFFBFBA2FA92F982F88278E0F2F
:10239000911DA11DB11DE2E0880F991FAA1FBB1F4F
:1023A000EA95D1F7861B970B885E9340C8F22150BF
:1023B00030404040504068517C4F21153105410567
:1023C000510571F60895789484B5826084BD84B512
:1023D000816084BD85B5826085BD85B5816085BD20
:1023E000EEE6F0E0808181608083E1E8F0E0108239
:1023F000808182608083808181608083E0E8F0E07A
:10240000808181608083E1E9F0E080818260808367
:10241000808181608083E0E9F0E080818160808359
:10242000E1ECF0E080818460808380818260808341
:10243000808181608083E3ECF0E080818160808333
:10244000E0ECF0E0808182608083E2ECF0E080816B
:1024500081608083EAE7F0E080818460808380810E
:1024600082608083808181608083808180688083B6
:102470000895209198063091990680919A0690913E
:102480009B06281B390B2F733070C90108952091CA
:1024900098063091990680919A0690919B0628178C
:1024A000390719F42FEF3FEF09C0E0919A06F09138
:1024B0009B06E85AF94F8081282F30E0C901089522
:1024C000209198063091990680919A0690919B06EA
:1024D0002817390719F42FEF3FEF13C0E0919A0640
:1024E000F0919B06E85AF94F208180919A069091CD
:1024F0009B0601968F73907090939B0680939A062B
:1025000030E0C901089510929F0610929E0688EE51
:1025100093E0A0E0B0E08093A0069093A106A09382
:10252000A206B093A3068AE795E090939D06809358
:102530009C0608950F931F93DF93CF930F92CDB70F
:10254000DEB78C01698380915301882369F083E0B1
:10255000BE016F5F7F4F41E050E00E9441091816B5
:10256000190614F49C0107C081E090E0F801938300
:10257000828320E030E0C9010F90CF91DF911F915D
:102580000F91089583E00C941809CF93DF9312C044
:1025900082E00E94A4082FEF8F3F9207C9F0E091DC
:1025A0009806F0919906E85AF94F8083D0939906DE
:1025B000C0939806C0919806D09199062196CF7342
:1025C000D07080919A0690919B06C817D90701F7A1
:1025D000DF91CF910895FC0180818E5F808380E838
:1025E00061EA72E042E450E00C94BC08FC01818195
:1025F0009081913A59F4813209F04CC080E06CE44A
:1026000071E047E050E00E94BC0842C0913209F0FE
:1026100041C0803239F48CE491E067E070E00E94C0
:10262000000936C0823209F035C08281809353019F
:1026300080914C0190914D01A0914E01B0914F01BC
:10264000805B9440A040B04019F58091530180FD1B
:1026500012C087E797E790930108809300082BE06A
:1026600088E190E00FB6F894A895809360000FBEC3
:10267000209360000DC088E10FB6F894809360004D
:10268000109260000FBEA8951092010810920008E9
:1026900081E0089580E00895F999FECF72BD61BD93
:1026A000F89A80B50895F999FECF1FBA72BD61BD41
:1026B00040BD0FB6F894FA9AF99A0FBE0895EF92BA
:1026C000FF920F931F93CF93DF93DC01EB017A010D
:1026D00055968C915597823061F08330F1F08130BE
:1026E00031F51496ED91FC9115973197E41BF50B9C
:1026F00031C116968D919C9117970197AC014E1997
:102700005F097A0114968D919C911597AC01461B37
:10271000570BEA01C21BD30B0AC016966D917C9130
:1027200017976C1B7D0B621B730BFA0113C1F7FE2D
:10273000AEC012C114968D919C911597E817F907B8
:102740000CF00AC177FF04C0260F371F60E070E06D
:1027500016964D915C911797C901860F971F4817E0
:1027600059071CF49A01261B370B121613060CF09E
:10277000F3C0962F862F869586958695A82FB0E074
:10278000B695BA2FAA27B795A795AC5ABE4FAE0FEC
:10279000BF1F977071F138E0391B432F50E0FA01E9
:1027A000E45AFA4FE081231750F4421B51098FEF8E
:1027B00090E002C0959587954A95E2F7E8230130AD
:1027C000110539F00130110538F00230110559F4C6
:1027D00007C08C918E2B06C0E0958C918E2302C091
:1027E0008C918E278C93231708F4B6C0231BA05816
:1027F000BF4F283060F10230110559F4FD01922FCE
:10280000808180958083E058FF4F98509830C0F7C2
:102810000EC00130110511F090E001C09FEFFD01E5
:10282000822F9083E058FF4F88508830D0F7822F56
:102830008850282F277086958695869590E001967A
:102840009695982F882797958795A80FB91F2223CB
:1028500009F482C0E22FF0E0E770F070EC5AFA4F12
:1028600020810130110541F00130110540F00230A6
:10287000110509F071C008C08C91822B03C020950E
:102880008C9182238C9368C08C918227FBCF169603
:102890008D919C911797E816F9060CF05DC0D7FF53
:1028A00004C02C0F3D1FC0E0D0E014964D915C9108
:1028B0001597C9018C0F9D1F481759071CF49A01E1
:1028C0002C1B3D0B121613060CF046C0C70168E026
:1028D00070E00E943F25DB01B695BA2FAA27B79575
:1028E000A795AC5ABE4FAC0FBD1F57E0E522FF24A1
:1028F00081E090E002C0880F991FEA94E2F7982FD8
:102900000130110551F00130110570F00230110550
:1029100019F519C08C91892B8D93215030408FEF80
:102920002F3F3807B9F718C0909503C08C918923C1
:102930008D93215030404FEF2F3F3407B9F70CC033
:102940008C9189278D93215030405FEF2F3F3507C1
:10295000B9F702C0F7FFEECEDF91CF911F910F9133
:10296000FF90EF9008950F931F93CF93DF93DC01B7
:10297000E90155968C915597823071F0833001F1C1
:10298000813039F514962D913C911597241B350B08
:102990002C1B3D0BFB012BC114968D919C9115971F
:1029A00001979C01261B370BB90116968D919C91BE
:1029B00017979C01241B350BA9014C1B5D0B09C00B
:1029C0001696ED91FC9117973197E61BF70B9A013C
:1029D0000EC177FF61C00DC116968D919C9117971E
:1029E000E817F9070CF005C137FF04C0C20FD31F69
:1029F00020E030E014964D915C911597CE01820F46
:102A0000931F481759071CF4EA01C21BD30B1C166D
:102A10001D060CF0EEC0CF0168E070E00E943F257B
:102A2000DB01B695BA2FAA27B795A795AC5ABE4F2A
:102A3000A20FB31FE770F07081E090E002C0880F32
:102A4000991FEA95E2F7982F0130110559F00130EE
:102A5000110570F00230110509F0CBC017C08C9140
:102A6000892B8D9321973FEFCF3FD307C1F7C1C08B
:102A7000909503C08C9189238D9321978FEFCF3F41
:102A8000D807C1F7B6C08C9189278D9321972FEF76
:102A9000CF3FD207C1F7ADC014968D919C91159789
:102AA000681779070CF0A5C057FF04C0C40FD51FE5
:102AB00040E050E016962D913C911797CE01840F7F
:102AC000951F281739071CF4E901C41BD50B1C16E8
:102AD0001D060CF08EC02C2F842F8695869586952A
:102AE000A82FB0E0B695BA2FAA27B795A795AC5AEC
:102AF000BE4FA60FB71F477071F138E0341B432F4C
:102B000050E0FA01E45AFA4FE081C31750F44C1B2D
:102B100051098FEF90E002C0959587954A95E2F7AD
:102B2000E8230130110539F00130110538F0023089
:102B3000110559F407C08C918E2B06C0E0958C913D
:102B40008E2302C08C918E278C93231708F451C0DA
:102B5000231BA058BF4F283060F10230110559F4F3
:102B6000FD01922F808180958083E058FF4F98501F
:102B70009830C0F70EC00130110511F090E001C08F
:102B80009FEFFD01822F9083E058FF4F88508830DF
:102B9000D0F7822F8850282F2770869586958695A6
:102BA00090E001969695982F882797958795A80F7E
:102BB000B91F2223F1F0E22FF0E0E770F070EC5A39
:102BC000FA4F20810130110539F00130110538F03C
:102BD0000230110571F407C08C91822B06C020953C
:102BE0008C91822302C08C9182278C9302C0F7FFC4
:102BF000F3CEDF91CF911F910F91089580E094E083
:102C0000E4E5F1E0DF019C011D9221503040E1F745
:102C100008951F93DC01162F59968C9159978F3F79
:102C200009F469C09396ED91FC91949780819996EF
:102C30009C919997892B80839596ED91FC9196971D
:102C400090819A968C919A97809589238083939608
:102C5000ED91FC919497908199968C91999780959C
:102C6000892380835E968C915E97882331F06EBDB8
:102C70000DB407FEFDCF8EB534C030E840E050E023
:102C800070E09196ED91FC919297908198968C913D
:102C90009897809589238083832F90E086239723BC
:102CA0005F96ED91FC91909797962C919797892B31
:102CB00021F08081822B808304C08081209528238D
:102CC00020839196ED91FC919297808198969C91AA
:102CD0009897892B808336954F5F5F4F4830510519
:102CE00081F69396ED91FC919497808199969C91B1
:102CF000892B808313C057966C91772767FD709559
:102D000081EF96E095D581EF96E060E012D681EFF5
:102D100096E0612F0ED681EF96E04CD61F91089574
:102D2000662311F067EA01C066EA73CFCF92DF92A3
:102D3000EF92FF920F931F93CF93DF93EC0161E229
:102D400068DFCE0160E065DFCE016FE762DFCE01B4
:102D500062E25FDFCE0160E05CDFCE0167E059DF59
:102D6000898D8F3F09F454C0EBA1FCA1808199A506
:102D7000892B8083EDA1FEA180819AA5892B808378
:102D8000EBA1FCA1908189A5809589238083A4E58E
:102D9000B1E09C918E8D882331F09EBD0DB407FE6D
:102DA000FDCF8EB529C030E840E050E0692F70E0DB
:102DB000E9A1FAA1908188A5809589238083832F3A
:102DC00090E086239723EF8DF8A12FA1892B21F086
:102DD0008081822B808304C08081209528232083DA
:102DE000E9A1FAA1808198A5892B808336954F5F50
:102DF0005F4F48305105E1F6119685E0A435B807DC
:102E000041F6EBA1FCA1808199A5892B808330C07C
:102E10000091B8008CE08093B800EE24FF246F8905
:102E2000772767FD709581EF96E002D581EF96E0F8
:102E300060E47FD554E5C52E51E0D52ECE0CDF1CC5
:102E400010E081EF96E0F60161916F0172D51F5F8E
:102E50001031B9F780E190E0E80EF91E81EF96E0BD
:102E6000A9D590E0E91694E0F906C9F60093B800F8
:102E7000DF91CF911F910F91FF90EF90DF90CF9056
:102E800008950F931F93CF93DF93EC01162F022F1A
:102E9000688F4F8B898D8F3F09F473C08B8D61E0F4
:102EA000F5D88D8D61E0F2D8ED8D2E2F332727FDDB
:102EB0003095F901E55CFD4FE491F0E0EE0FFF1F66
:102EC000E15EFD4F859194919CA38BA3275A3D4FC2
:102ED000F901849189A7EB8D2E2F332727FD30959B
:102EE000F901E55CFD4FE491F0E0EE0FFF1FE15EBC
:102EF000FD4F859194919EA38DA3275A3D4FF901D3
:102F000084918AA78E8D882309F034C0898D61E071
:102F1000BDD88A8D61E0BAD8EA8D2E2F332727FDE0
:102F20003095F901E55CFD4FE491F0E0EE0FFF1FF5
:102F3000E15EFD4F859194919AA389A3275A3D4F55
:102F4000F901849188A7E98D2E2F332727FD30952D
:102F5000F901E55CFD4FE491F0E0EE0FFF1FE15E4B
:102F6000FD4F8591949198A38F8F275A3D4FF9017A
:102F700084918FA38E8D882339F046D584E033D594
:102F800003C081EF96E026D50023B1F08C8D61E07F
:102F90007DD88C8D61E007D961E070E080E090E041
:102FA000B9D98C8D60E0FFD86AE070E080E090E0F5
:102FB000B1D98C8D61E0F7D8CE016EEA2ADECE0160
:102FC00065ED27DECE0160E824DECE0168EA21DE71
:102FD000CE016FE31EDECE0163ED1BDECE0160E0AD
:102FE00018DECE0160E415DECE016DE812DE113090
:102FF00019F4CE0160E102C0CE0164E10ADECE0127
:1030000060E207DECE0160E004DECE0161EA01DEAF
:10301000CE0168ECFEDDCE016AEDFBDDCE0162E1A2
:10302000F8DDCE0161E8F5DD113019F4CE016FE96C
:1030300002C0CE016FECEDDDCE0169EDEADD1130AD
:1030400019F4CE0162E202C0CE0161EFE2DDCE01F1
:103050006BEDDFDDCE0160E4DCDDCE0164EAD9DDBD
:10306000CE0166EAD6DDCE016FEAD3DDDF91CF91E6
:103070001F910F910895DF92EF92FF920F931F938C
:103080008C01F62EE42ED22E60E870E040E450E091
:10309000C2D08CE895E0F80191838083F38EE48EB2
:1030A000D58E81E0868F1F910F91FF90EF90DF907A
:1030B0000895CF92DF92EF92FF920F931F93CF93D9
:1030C000DF938C017B01EA01690177FD9BC0A7D3E7
:1030D000E816F9060CF096C0D7FD94C0C801A3D33A
:1030E000C817D9070CF08EC081C0F8018481958182
:1030F00001978C1B9D0BE7017C0118C0F8018481AE
:10310000958101979C012E193F097901868197814C
:103110000197FC01EC1BFD0BEF0108C0F801868153
:10312000978101978E199F097E01EC01F1E0CF167E
:10313000D10451F021E0C216D10400F132E0C316EF
:10314000D10409F05FC036C0CE0168E070E00E9493
:103150003F25FB01F695FE2FEE27F795E795EE0D3F
:10316000FF1DEC5AFE4FC770D07002C0CC0CDD1CA6
:10317000CA95E2F780818C29808344C0CE0168E043
:1031800070E00E943F25FB01F695FE2FEE27F79594
:10319000E795EE0DFF1DEC5AFE4FC770D07081E031
:1031A00090E002C0880F991FCA95E2F780952081B0
:1031B00028231AC0CE0168E070E00E943F25FB0181
:1031C000F695FE2FEE27F795E795EE0DFF1DEC5ACD
:1031D000FE4FC770D07081E090E002C0880F991F49
:1031E000CA95E2F72081282720830CC0C80114D398
:1031F000823009F483CF833009F490CF813009F015
:1032000095CF73CFDF91CF911F910F91FF90EF90EA
:10321000DF90CF900895FC011382128284EA95E03A
:103220009183808375836483578346837187608726
:1032300053874287158A158614861786168621E0DD
:10324000248B8FEF9FEF938B828B918B808B268BC0
:1032500008952F923F924F925F926F927F928F923A
:103260009F92AF92BF92CF92DF92EF92FF920F9315
:103270001F93DF93CF9300D000D0CDB7DEB73C01D2
:103280007C836B836A015901FA82E9822224332408
:103290009801241B350B37FF03C0309521953F4F14
:1032A000C5014B815C81841B950B97FF03C09095F2
:1032B00081959F4F821793075CF481E0282E312C73
:1032C000C601CB80DC809C838B83C80185015C01B7
:1032D0008B819C81A816B90644F4C501AB80BC80E3
:1032E0009C838B83C80186016C012501AB81BC8165
:1032F0004A1A5B0A7801EC18FD08F7FE04C0F09446
:10330000E194F108F394C016D10624F088248A943D
:10331000982C03C0B1E08B2E912CC20162E070E0CA
:103320000E943F258B0125C0D301ED91FC91211412
:10333000310441F00480F581E02DC301B6014B81D9
:103340005C8107C00480F581E02DC3016B817C8125
:10335000A60129813A8109950E191F0917FF04C09A
:10336000C80CD91C040D151DEB81FC813196FC8322
:10337000EB834B815C81A416B506B4F60F900F90D9
:103380000F900F90CF91DF911F910F91FF90EF90D1
:10339000DF90CF90BF90AF909F908F907F906F9075
:1033A0005F904F903F902F9008954F925F926F9251
:1033B0007F928F929F92AF92BF92CF92DF92EF92C5
:1033C000FF920F931F936C015B014A0139012801A1
:1033D000DC01ED91FC910284F385E02D87010995D4
:1033E000D601ED91FC91A40141505040440D551D72
:1033F0000284F385E02DC601B50193010995D6013C
:10340000ED91FC910084F185E02DC601B501A40188
:1034100092010995D601ED91FC910894A108B1089B
:10342000A60CB71C0084F185E02DC601B501A401EE
:10343000920109951F910F91FF90EF90DF90CF902F
:10344000BF90AF909F908F907F906F905F904F90C4
:103450000895CF92DF92EF92FF920F931F93DC01BA
:103460006B017801ED91FC918A0101501040020F2F
:10347000131F0680F781E02D960109951F910F918A
:10348000FF90EF90DF90CF900895CF92DF92EF9270
:10349000FF920F931F93DC016A01C9017801ED913E
:1034A000FC9111979B0121503040280F391F068055
:1034B000F781E02DCD01860109951F910F91FF90B5
:1034C000EF90DF90CF9008956F927F928F929F92AE
:1034D000AF92BF92CF92DF92EF92FF920F931F9322
:1034E000CF93DF935C013A0169014801EB01C60EFD
:1034F000D71E0DC0D501ED91FC910084F185E02D22
:10350000C501BE01A3019401870109952196CC153F
:10351000DD0584F3DF91CF911F910F91FF90EF9024
:10352000DF90CF90BF90AF909F908F907F906F90E3
:103530000895EF92FF920F931F93FC017B01A081EE
:10354000B18120853185028513851E960D90BC9131
:10355000A02D60E070E040E050E0FD0109951F9172
:103560000F91FF90EF9008952F923F924F925F92AC
:103570006F927F928F929F92AF92BF92CF92DF9283
:10358000EF92FF920F931F93DF93CF93CDB7DEB7E8
:103590002F970FB6F894DEBF0FBECDBF5C015E83E0
:1035A0004D8318870F83FA86E986CB86DC0118964F
:1035B0008D919C911997681779070CF0A4C01A9601
:1035C0008D919C911B97481759070CF09CC0EC2DCE
:1035D000F0E0FF87EE87CF01880F991F8E0F9F1FA6
:1035E000880F991F860F971F181619060CF08BC0AD
:1035F000CF01F3E0880F991FFA95E1F7840F951F2B
:10360000181619060CF07FC085E0289FA001112430
:103610005A8349832B011B011C825C81553011F4B4
:1036200080E005C0E981FA81ED51FD4F84912C863F
:103630003D866D807E8043011B82C82EDD2480FF85
:103640001CC0D501ED91FC91BB85B13049F40480DB
:10365000F581E02DC501B201A3012F81388522C07B
:103660000684F785E02DC5016C857D85A4012E8536
:103670003F858901EF80F88423C0E985FA852F8191
:103680003885E217F307E9F0D501ED91FC91BB8590
:10369000B13051F40480F581E02DC501B201A301E0
:1036A00029853A8509950DC00684F785E02DC50169
:1036B0006C857D85A4012E853F858901E984FA8486
:1036C0000995EB81EF5FEB832E853F85820E931E7C
:1036D0000894611C711CE83021F0D594C7948C2D9E
:1036E000ACCF3C813F5F3C834E855F85240E351E09
:1036F0000894411C511C89819A8101969A8389837F
:10370000363009F08ACF2F960FB6F894DEBF0FBE81
:10371000CDBFCF91DF911F910F91FF90EF90DF9080
:10372000CF90BF90AF909F908F907F906F905F9061
:103730004F903F902F900895CF92EF92FF920F936A
:103740001F93CF93DF93EC01262F6A3061F42C890D
:1037500030E003E0220F331F0A95E1F78E859F8545
:10376000820F931F36C06D30C1F16C857D854E850B
:103770005F8508891989EA88FB88CC88F5DE2C8961
:1037800086E0289FB00111248C859D85680F791FE4
:103790007D876C878E89882301F1422F50E08AEF64
:1037A0009FEF9C01429FC001439F900D529F900D3F
:1037B000112428853985820F931F861797076CF48B
:1037C00013E0440F551F1A95E1F78E859F85840FEE
:1037D000951F9F878E871D861C8681E090E0DF9174
:1037E000CF911F910F91FF90EF90CF900895FC0122
:1037F00075876487578746870895FC01662309F417
:1038000061E0648B0895FC01738B628B718B608B1C
:103810000895FC01668B0895FC0185890895FC01DB
:10382000808591850895FC0182859385089508958A
:1038300081E08093F0066093CD061092EE06109220
:10384000EF0608952091CC0630E08091CB06281B2E
:103850003109C90108954091CB068091CC064817E3
:1038600018F02FEF3FEF0AC0E42FF0E0E555F94FD5
:103870008081282F30E04F5F4093CB06C901089527
:10388000E091CB068091CC06E81718F0EFEFFFEF40
:1038900006C0F0E0E555F94F8081E82FF0E0CF0158
:1038A000089508951092F4061092F30688EE93E0BE
:1038B000A0E0B0E08093F5069093F606A093F7069B
:1038C000B093F8068CEB95E09093F2068093F106A6
:1038D0000895CF92DF92EF92FF920F931F93CF93B1
:1038E000DF937C016B018A018091F0068823A1F0AF
:1038F000C0E0D0E00DC0D701ED91FC91D601AC0F36
:10390000BD1F0190F081E02DC7016C9109952196B2
:10391000C017D10780F303C0CB01642F29D1C801A0
:10392000DF91CF911F910F91FF90EF90DF90CF909B
:103930000895DF93CF930F92CDB7DEB7FC01698373
:103940008091F0068823C9F08091EF06803238F02C
:1039500081E090E09383828320E030E014C0809186
:10396000EE06E82FF0E0E253F94F998190838F5FE4
:103970008093EE068093EF0604C0CE01019661E0CD
:10398000F7D021E030E0C9010F90CF91DF91089589
:103990000F93062F8091CD066EEC76E04091EF06F6
:1039A00021E091D01092EE061092EF061092F006F0
:1039B0000F91089561E0ECCF413208F040E2862F8C
:1039C0006BEA76E037D01092CB068093CC06089550
:1039D00021E0F2CF1092CB061092CC061092EE06A8
:1039E0001092EF0671C22CB5382F33702C7F322B1A
:1039F0003CBD2DB590E095958795959587958170FF
:103A00002E7F822B8DBD089581E161E00E94D3104D
:103A100081E161E00E9446108CB580618CBD8CB55F
:103A200080648CBD8FE061E00E94461080E161E01F
:103A30000C944610382F413210F040E042C0809183
:103A4000FD068823E1F791E09093FD062093FF06A1
:103A50008FEF80936A071092250741504093260705
:103A60004F5F9093FE068091FE06330F832B809369
:103A7000FE0680910007813041F41092000780918A
:103A8000FE068093BB0085EC01C085EE8093BC00F0
:103A90008091FD068130E1F380912507841710F4B1
:103AA0004091250720E030E00AC0FB01E20FF31F40
:103AB000D901AB5FB84F8C9180832F5F3F4F2417A4
:103AC000A0F3842F08950F931F93582F122F413284
:103AD00010F081E04AC08091FD068823E1F782E082
:103AE0008093FD060093FF068FEF80936A07109284
:103AF000250740932607A5E0B7E0FB0102C08191AE
:103B00008D938E2F861B8417D0F31092FE06809122
:103B1000FE06550F852B8093FE06809100078130AD
:103B200041F4109200078091FE068093BB0085EC63
:103B300001C085EE8093BC00112321F08091FD0629
:103B40008230E1F380916A078F3F11F480E00DC06D
:103B500080916A07803211F482E007C080916A0781
:103B6000803311F084E001C083E01F910F9108952C
:103B7000482F613210F081E008958091FD06843075
:103B800011F082E0089560934807A7E2B7E0842F20
:103B90009C01F90102C081918D938E2F841B8617A1
:103BA000D0F380E008951F920F920FB60F92112468
:103BB0002F933F934F935F936F937F938F939F9335
:103BC000AF93BF93EF93FF938091B90090E0887F0C
:103BD00090708036910509F4F2C081369105CCF5DC
:103BE0008832910509F47BC089329105B4F48031A3
:103BF000910509F46FC0813191053CF4009709F4F7
:103C000047C1089709F04FC165C08831910509F493
:103C100066C0809709F047C182C08034910509F4DD
:103C2000A4C08134910544F48033910509F482C025
:103C3000C89709F038C189C08035910509F489C059
:103C40008835910509F496C08834910509F02BC197
:103C5000AEC08839910509F413C189399105ECF496
:103C60008837910509F4ABC0893791054CF4883643
:103C7000910509F4A4C08037910509F014C19FC0D3
:103C80008838910509F4FCC08039910509F49DC07C
:103C90008038910509F007C198C0803B910509F46F
:103CA000C6C0813B91054CF4803A910509F49FC050
:103CB000883A910509F0F7C0BAC0803C910509F433
:103CC000E3C0883C910509F4DFC0883B910509F009
:103CD000EAC0C2C08091FE068093BB00CFC0909125
:103CE000250780912607981768F490912507E92FFA
:103CF000F0E0EB5FF84F80818093BB009F5F909373
:103D00002507BCC08091FF06882309F44BC085EDD0
:103D10008093BC008091BC0084FDFCCFC2C080E2D7
:103D200080936A0785ED8093BC008091BC0084FD80
:103D3000FCCFB7C080E380936A0785ED8093BC0019
:103D40008091BC0084FDFCCFACC088E380936A07FF
:103D50009BC0809125079091BB00E82FF0E0EB5FBE
:103D6000F84F90838F5F809325079091250780916E
:103D7000260782C0809125079091BB00E82FF0E0D4
:103D8000EB5FF84F90838F5F809325078091FF064C
:103D9000882341F085ED8093BC008091BC0084FDB8
:103DA000FCCF7FC081E08093000784EA6EC085ED80
:103DB0008093BC008091BC0084FDFCCF72C083E086
:103DC0008093FD061092690759C08091690780327F
:103DD00008F056C0809169079091BB00E82FF0E091
:103DE000E75BF84F90838F5F8093690747C08091AE
:103DF0006907803230F4E0916907F0E0E75BF84F43
:103E0000108285ED8093BC008091BC0084FDFCCFC6
:103E10001092FD0660916907E0910307F091040795
:103E200089E497E070E00995109269072DC084E05D
:103E30008093FD061092470710924807E091010712
:103E4000F0910207099580914807882329F481E0C1
:103E5000809348071092270790914707E92FF0E0D9
:103E6000E95DF84F80818093BB009F5F9093470787
:103E70009091470780914807981710F485EC01C08E
:103E800085E88093BC000FC085EC8093BC0009C01E
:103E900010926A0785ED8093BC008091BC0084FD80
:103EA000FCCF1092FD06FF91EF91BF91AF919F91D2
:103EB0008F917F916F915F914F913F912F910F90D3
:103EC0000FBE0F901F9018951092FD0681E0809311
:103ED000FF061092000782E061E00E94D31083E0A9
:103EE00061E00E94D310E9EBF0E080818E7F808357
:103EF00080818D7F808388E48093B80085E48093FF
:103F0000BC0008958F929F92AF92BF92CF92DF92A2
:103F1000EF92FF920F931F93CF93DF937B018C015E
:103F2000EA012CE330E040E050E0BCD56883C801F2
:103F3000B7012CE330E040E050E0B4D5122F032F5E
:103F4000F42EE52E622F732F842F952F2CE330E073
:103F500040E050E0A7D56983612F702F8F2D9E2DF3
:103F60002CE330E040E050E09DD5122F032FF42EDB
:103F7000E52E622F732F842F952F28E130E040E04B
:103F800050E090D56A83612F702F8F2D9E2D28E1F0
:103F900030E040E050E086D579018A01C801B701E0
:103FA0006C5F7F4F8F4F9F4F27E030E040E050E045
:103FB00079D56F5F6B83AA24BB24650120E001C023
:103FC0002F5F822E9924F401EE54F84FCF018370B5
:103FD0009070892B89F4CF0164E670E050D5892B6D
:103FE00031F4CF0160E971E04AD5892B29F48EE6DE
:103FF00091E0A0E0B0E004C08DE691E0A0E0B0E088
:10400000A80EB91ECA1EDB1EC501A0E0B0E0E8166E
:10401000F9060A071B07A0F62E83F401EE54F84FA9
:1040200083E0882E912C8E229F228114910489F4A2
:10403000CF0164E670E023D5892B31F4CF0160E92C
:1040400071E01DD5892B29F48EE691E0A0E0B0E067
:1040500004C08DE691E0A0E0B0E0A81AB90ACA0A4F
:10406000DB0A980187010A191B092C093D09CF01B8
:1040700064E670E004D57C01CF0160E971E0FFD413
:10408000AC01E8ECF5E060E0613051F4811491049A
:1040900049F4E114F10441F44115510529F002C03D
:1040A000808103C08CE101C08DE190E0A0E0B0E030
:1040B000081719072A073B0740F0081B190B2A0BA2
:1040C0003B0B6F5F31966C30F9F66F5F6D83802F1D
:1040D0008F5F8C83DF91CF911F910F91FF90EF90B5
:1040E000DF90CF90BF90AF909F908F900895EF9208
:1040F000FF920F931F937B018C0180918207909117
:104100008307A0918407B0918507E816F9060A078E
:104110001B0769F0C801B70147E757E0F3DEE092FB
:104120008207F092830700938407109385071F91FD
:104130000F91FF90EF900895DADF20917907222305
:1041400019F42CE030E009C0822F90E02D3020F0EF
:104150009C012C50304001C09C01C90108954F9230
:104160005F926F927F928F929F92AF92BF92CF9207
:10417000DF92EF92FF920F931F93CF93DF934C0147
:10418000DC0116961C91612F70E080E090E020E841
:1041900033E341EE51E054D45B016C0122EB37E094
:1041A000E12FF0E0EE54F84F1BC0C901837090700E
:1041B000892BA1F4C90164E670E061D4892B31F444
:1041C000C90160E971E05BD4892B41F480E891E595
:1041D000A1E0B0E0A80EB91ECA1EDB1E2F5F3F4F44
:1041E0002E173F0711F7D40115968C91482E5524B0
:1041F000C90164E670E043D47C01C90160E971E063
:104200003ED48C01C1E0D0E093E0692E712C622293
:10421000732226C0C230D10591F46114710479F47F
:10422000E114F10419F40115110549F480E89BE348
:10423000A6E2B0E0A80EB91ECA1EDB1E10C0FE0129
:10424000E953FA4F608170E080E090E020E831E5CA
:1042500041E050E0F5D3A60EB71EC81ED91E219628
:10426000C415D505BCF2D40112966C9170E080E0C3
:1042700090E020E13EE040E050E0E2D37B018C01A1
:10428000F401618170E080E090E02CE330E040E0F8
:1042900050E0D6D3E60EF71E081F191FD4018C91EB
:1042A000E80EF11C011D111D14966C9170E0615017
:1042B0007040882777FD8095982F20E831E541E010
:1042C00050E0BED3E60EF71E081F191FEA0CFB1CB8
:1042D0000C1D1D1DB701C801DF91CF911F910F91DA
:1042E000FF90EF90DF90CF90BF90AF909F908F9016
:1042F0007F906F905F904F90089560936D077093DB
:104300006E0780936F07909370072091640530913A
:1043100065054091660550916705260F371F481FB8
:10432000591F20937107309372074093730750937E
:10433000740782E090E090937607809375070E945F
:104340007C1160937E0770937F0780938007909322
:1043500081070895EF92FF920F931F931CC02F5F68
:104360003F4F4F4F5F4F20936D0730936E07409341
:104370006F075093700788EE93E0A0E0B0E0E80E7E
:10438000F91E0A1F1B1FE0927E07F0927F07009321
:104390008007109381070E947C11E0907E07F090C7
:1043A0007F0700918007109181076E197F09800BAC
:1043B000910B20916D0730916E0740916F075091DE
:1043C0007007685E73408040904048F680917107A6
:1043D00090917207A0917307B0917407281739075D
:1043E0004A075B07E0F0E0916B07F0916C073097AC
:1043F000B1F00995611571058105910511F07DDF19
:104400000EC020E030E08091750790917607892BEF
:1044100011F021E030E0309376072093750760912A
:104420006D0770916E0780916F07909170071F91D3
:104430000F91FF90EF90089590936C0780936B0716
:1044400080916D0790916E07A0916F07B0917007F2
:104450008093710790937207A0937307B0937407CA
:1044600079CF78DF44DE8091770790E0089572DF9E
:104470003EDE8091780790E008956CDF5DCE88E69F
:1044800090E0909387078093860781EF96E068E637
:1044900070E0CED981EF96E060E04BDA81EF96E0F4
:1044A00089DA8823C1F08FE690E0909387078093A4
:1044B000860781EF96E06FE670E0BAD981EF96E06B
:1044C00060E037DA81EF96E075DA882321F0109208
:1044D00087071092860708951F93CF93DF93EC010F
:1044E00060918607709187076115710509F464C0B2
:1044F00081EF96E09DD981EF96E060E01ADA81EFD6
:1045000096E058DA609186077091870781EF96E010
:1045100047E050E05DDA81EF96E09DD9282F2F77B4
:1045200022952F701AE0219F900111248F70820F25
:10453000888381EF96E08FD9282F22952F70219FB5
:10454000900111248F70820F898381EF96E083D9C7
:10455000282F2F7322952F70219F900111248F7087
:10456000820F8A8381EF96E076D987708B8381EF03
:1045700096E071D9282F22952F70219F9001112448
:104580008F70820F8C8381EF96E065D9282F22955A
:104590002F70219F900111248F70820F8D8381EFE6
:1045A00096E059D9282F2F70225E82958F70819FB7
:1045B000C0011124280F2E83DF91CF911F91089500
:1045C0000F931F93DF93CF93CDB7DEB727970FB627
:1045D000F894DEBF0FBECDBF8E010F5F1F4FC80125
:1045E0007BDFC801BCDD27960FB6F894DEBF0FBE97
:1045F000CDBFCF91DF911F910F91089581EF96E08C
:10460000E9C95058BB27AA270ED075C166D130F032
:104610006BD120F031F49F3F11F41EF45BC10EF416
:10462000E095E7FB51C1E92F77D180F3BA17620714
:1046300073078407950718F071F49EF58FC10EF487
:10464000E0950B2EBA2FA02D0B01B90190010C01A2
:10465000CA01A0011124FF27591B99F0593F50F4BA
:10466000503E68F11A16F040A22F232F342F442712
:10467000585FF3CF469537952795A795F04053950A
:10468000C9F77EF41F16BA0B620B730B840BBAF0DA
:104690009150A1F0FF0FBB1F661F771F881FC2F745
:1046A0000EC0BA0F621F731F841F48F48795779559
:1046B0006795B795F7959E3F08F0B3CF9395880F10
:1046C00008F09927EE0F979587950895D9D008F4AB
:1046D00081E008950CD00FC107D140F0FED030F03A
:1046E00021F45F3F19F0F0C0511139C1F3C014D16A
:1046F00098F39923C9F35523B1F3951B550BBB27A9
:10470000AA2762177307840738F09F5F5F4F220F55
:10471000331F441FAA1FA9F333D00E2E3AF0E0E84E
:1047200030D091505040E695001CCAF729D0FE2F9A
:1047300027D0660F771F881FBB1F2617370748072C
:10474000AB07B0E809F0BB0B802DBF01FF279358E2
:104750005F4F2AF09E3F510568F0B6C000C15F3F31
:10476000ECF3983EDCF3869577956795B795F795CA
:104770009F5FC9F7880F911D9695879597F90895C2
:10478000E1E0660F771F881FBB1F6217730784075E
:10479000BA0720F0621B730B840BBA0BEE1F88F76D
:1047A000E095089504D06894B111D9C00895BCD0A3
:1047B00088F09F5790F0B92F9927B751A0F0D1F00A
:1047C000660F771F881F991F1AF0BA95C9F712C094
:1047D000B13081F0C3D0B1E00895C0C0672F782F09
:1047E0008827B85F39F0B93FCCF386957795679500
:1047F000B395D9F73EF490958095709561957F4F6C
:104800008F4F9F4F0895E89409C097FB3EF4909511
:104810008095709561957F4F8F4F9F4F9923A9F099
:10482000F92F96E9BB279395F69587957795679528
:10483000B795F111F8CFFAF4BB0F11F460FF1BC06C
:104840006F5F7F4F8F4F9F4F16C0882311F096E9FF
:1048500011C0772321F09EE8872F762F05C06623AD
:1048600071F096E8862F70E060E02AF09A95660F66
:10487000771F881FDAF7880F9695879597F908951F
:10488000990F0008550FAA0BE0E8FEEF1616170661
:10489000E807F907C0F012161306E407F50798F0C9
:1048A000621B730B840B950B39F40A2661F0232BE2
:1048B000242B252B21F408950A2609F4A140A6955E
:1048C0008FEF811D811D089597F99F6780E870E043
:1048D00060E008959FEF80EC089500240A94161676
:1048E000170618060906089500240A9412161306DE
:1048F000140605060895092E0394000C11F488236C
:1049000052F0BB0F40F4BF2B11F460FF04C06F5F87
:104910007F4F8F4F9F4F089557FD9058440F551F5D
:1049200059F05F3F71F04795880F97FB991F61F031
:104930009F3F79F087950895121613061406551FA8
:10494000F2CF4695F1DF08C0161617061806991F14
:10495000F1CF86957105610508940895E894BB2709
:1049600066277727CB0197F908958ADF08F48FEF40
:1049700008950BD0C0CFB1DF28F0B6DF18F0952333
:1049800009F0A2CFA7CF1124EACFC6DFA0F3959FED
:10499000D1F3950F50E0551F629FF001729FBB2726
:1049A000F00DB11D639FAA27F00DB11DAA1F649FD2
:1049B0006627B00DA11D661F829F2227B00DA11D85
:1049C000621F739FB00DA11D621F839FA00D611D0B
:1049D000221F749F3327A00D611D231F849F600D2C
:1049E000211D822F762F6A2F11249F5750408AF065
:1049F000E1F088234AF0EE0FFF1FBB1F661F771FF1
:104A0000881F91505040A9F79E3F510570F05CCF30
:104A1000A6CF5F3FECF3983EDCF3869577956795DC
:104A2000B795F795E7959F5FC1F7FE2B880F911D0E
:104A30009695879597F9089523DF880B990B08952C
:104A4000629FD001739FF001829FE00DF11D649F72
:104A5000E00DF11D929FF00D839FF00D749FF00DFE
:104A6000659FF00D9927729FB00DE11DF91F639F9F
:104A7000B00DE11DF91FBD01CF011124089597FB71
:104A8000092E07260AD077FD04D02ED006D00020AC
:104A90001AF4709561957F4F0895F6F7909581957A
:104AA0009F4F0895A1E21A2EAA1BBB1BFD010DC04A
:104AB000AA1FBB1FEE1FFF1FA217B307E407F507CE
:104AC00020F0A21BB30BE40BF50B661F771F881FAA
:104AD000991F1A9469F760957095809590959B0140
:104AE000AC01BD01CF010895AA1BBB1B51E107C05A
:104AF000AA1FBB1FA617B70710F0A61BB70B881F6E
:104B0000991F5A95A9F780959095BC01CD010895FC
:104B1000EE0FFF1F0590F491E02D09942F923F9224
:104B20004F925F926F927F928F929F92AF92BF92BD
:104B3000CF92DF92EF92FF920F931F93CF93DF9369
:104B4000CDB7DEB7CA1BDB0B0FB6F894DEBF0FBEC6
:104B5000CDBF09942A88398848885F846E847D8413
:104B60008C849B84AA84B984C884DF80EE80FD8015
:104B70000C811B81AA81B981CE0FD11D0FB6F8948B
:104B8000DEBF0FBECDBFED01089517E0CAEED7E03E
:104B900003C0FE01BFDF2296CC3ED107D1F7F894C7
:024BA000FFCF45
:104BA20000556E706C756767656400436861726773
:104BB200696E6700436861726765640020003100B6
:104BC200320033006F6E006F6666006E616E0069C0
:104BD2006E66006F7666002E0020008C0700000AC9
:104BE20000090008000100050001010100E10000C8
:104BF20000000000000000000000000000000000B3
:104C020000000000000000000000000000000000A2
:104C12000000000000000000000000000000000092
:104C22000000000000000000000000000000000082
:104C320000000080808000000000000000000000F2
:104C420000000000008080C0C000000000000000E2
:104C52000000000000000000000000000000000052
:104C62000000000000000000000000000000000042
:104C72000000000000000000000000000000000032
:104C8200000000000000000080C0E0F0F8FCF8E046
:104C92000000000000000000000000000000000012
:104CA2000080808080800080800000000080808002
:104CB200808000FFFFFF00000000808080800000F5
:104CC2008080000080FFFF808000808000808080E4
:104CD200800080800000000000808000008C8E84B4
:104CE200000080F8F8F880000000000000000000DA
:104CF20000000000F0F0F0F0F0F0F0F0F0F0F0F072
:104D0200E0E0C08000E0FCFEFFFFFF7FFFFFFFFF4F
:104D1200FF0000000000000000000000000000FE94
:104D2200FFC70101010183FFFF00007CFEC70101F3
:104D3200010183FFFFFF0038FEC78301010183C722
:104D4200FFFF000001FFFF010100FFFF070101015A
:104D520000007FFF80000000FFFF7F0000FFFFFFD9
:104D6200000001FFFFFF0100000000000000000042
:104D720000000000030F3F7F7FFFFFFFFFFFFFFFE9
:104D8200E7C7C78F8F9FBFFFFFC3C0F0FFFFFFFFC3
:104D9200FFFCFCFCFCFCFCFCFCF8F8F0F0E0C000C2
:104DA20001030303030301030300000000010303E3
:104DB20003030101030100000001030303030101D6
:104DC20003030000000303000000030300000000CF
:104DD20000000001030303030301000000010301BB
:104DE20000000003030100000000000000000000BA
:104DF2000000000000000080C0E0F0F9FFFFFFFFAC
:104E0200FF3F1F0F87C7F7FFFF1F1F3DFCF8F8F892
:104E1200F87C7DFFFFFFFFFFFFFFFF7F3F0F0700D3
:104E22003030000000000000000000000000000020
:104E32000000000000000000FEFEFC000000000078
:104E42000000000000000000000000000000000060
:104E520000E0C00000000000000000000000303050
:104E62000000000000000000000000000000000040
:104E72000000000000C0FEFFFFFFFFFFFFFFFFFF7B
:104E82007F7F3F1F0F071F7FFFFFF8F8FFFFFFFF26
:104E9200FFFEF8E00000000100000000000000003A
:104EA200FEFE000000FCFEFC0C06060EFCF80000F4
:104EB200F0F81C0E0606060CFFFFFF0000FEFE00C7
:104EC200000000FCFEFC00183C7E66E6CE8400007A
:104ED20006FFFF0606FCFEFC0C0606060000FEFEB0
:104EE2000000C0F8FC4E4646464E7C7840183C76A0
:104EF200E6CECC80000000000000000000000000B0
:104F0200000000000000000001070F1F1F3F3F3F8D
:104F12003F1F0F030000000000000000000000001F
:104F22000F0F0000000F0F0F000000000F0F000016
:104F320003070E0C18180C060F0F0F0000010F0EBE
:104F42000C180C0F070100040E0C180C0F070000C0
:104F5200000F0F00000F0F0F0000000000000F0FE6
:104F620000000007070C0C181C0C060600040E0CAF
:104F7200180C0F07000000000000000000000000F5
:104F8200000000000000000000000000000000001F
:104F9200000000000000000000000000000000000F
:104FA20000000000000000000000000000000000FF
:104FB20000000000000000000000000000000000EF
:104FC20000000000000000000000000000000000DF
:104FD20000000000000000000000000000000000CF
:104FE20000000000000000000000000000000000BF
:104FF20000000000000103070F1F3F7F0080C0E098
:10500200F0F8FCFE2C01000000000000C90BE40CCB
:10501200640C220C170C000000009A12E40C3912E6
:1050220060124712C212C512000000009C1BE40C61
:1050320059182919B3145F13D519641A991A9016BD
:10504200000000009C1BE40C0A102919291A451AB9
:10505200D519641A991A171C00000000991C691CC2
:10506200221C2B1C401C511C1F1C1F1E1F1E1F1FFD
:045072001E1F1E1FC0
:00000001FF
