:10000000F5C300001AC4000018C4000016C40000A4
:1000100014C4000012C4000010C400000EC400008C
:100020000CC400000AC400000C94C5080C944909D3
:1000300004C4000002C4000000C40000FEC30000AD
:10004000FCC30000FAC30000F8C30000F6C30000C0
:10005000F4C30000F2C30000F0C300000C94640D70
:10006000ECC30000EAC30000E8C30000E6C30000E0
:10007000E4C30000E2C30000E0C30000DEC30000F0
:10008000DCC30000DAC30000D8C30000D6C3000000
:100090000C94881DD2C30000D0C30000CEC3000062
:1000A000CCC30000CAC30000C8C300000403090495
:1000B0002203550053004200200049004F00200059
:1000C00042006F00610072006400200020002000E8
:1000D0002000180355006E006B006E006F00770063
:1000E0006E0020002000200020001201000200000D
:1000F00000402509641F00010102000112010002F5
:10010000020000402509641F00010102000100C136
:100110008081C105010902A1010901A10085010534
:10012000091901290315002501950375018102951F
:10013000017505810305010930093109381581254B
:100140007F750895038106C0C005010906A10185D8
:1001500002050719E029E7150025017501950881B9
:10016000029501750881039506750815002565053A
:1001700007190029658100C009040200010300007D
:1001800000092101010001226500070584034000E8
:100190000100000000000000002A2B2800000000E1
:1001A000000000000000000000000000000000004F
:1001B000002C9EB4A0A1A2A434A6A7A5AE362D37CC
:1001C00038271E1F20212223242526B333B62EB71D
:1001D000B89F8485868788898A8B8C8D8E8F909135
:1001E00092939495969798999A9B9C9D2F3130A3C2
:1001F000AD350405060708090A0B0C0D0E0F10118A
:1002000012131415161718191A1B1C1DAFB1B0B50F
:100210000000000000240027002A002D003000000C
:10022000000000250028002B002E003100000000F7
:10023000002300260029002C002F000404040404DD
:100240000304050202020204030202020206060679
:10025000060606040402020204040802011040809B
:10026000401020408040800802040180402010029D
:10027000011080102040400000000200080E000025
:10028000030401000B00000000000000000000005B
:100290000000000000070605040100080A0B0C0D11
:1002A00009080B0002020201000904000001020219
:1002B00000000524001001052401010104240206A8
:1002C0000524060001070581031000400904010010
:1002D000020A000000070502024000000705830231
:1002E00040000000000000003E5B4F5B3E3E6B4F55
:1002F0006B3E1C3E7C3E1C183C7E3C181C577D57B8
:100300001C1C5E7F5E1C00183C1800FFE7C3E7FF63
:100310000018241800FFE7DBE7FF30483A060E26F6
:1003200029792926407F050507407F05253F5A3C4E
:10033000E73C5A7F3E1C1C08081C1C3E7F14227F91
:1003400022145F5F005F5F06097F017F0066899569
:100350006A606060606094A2FFA29408047E040852
:1003600010207E201008082A1C08081C2A08081ED5
:10037000101010100C1E0C1E0C30383E3830060EBB
:100380003E0E06000000000000005F0000000700B5
:100390000700147F147F14242A7F2A122313086471
:1003A0006236495620500008070300001C22410015
:1003B0000041221C002A1C7F1C2A08083E08080055
:1003C00080703000080808080800006060002010F5
:1003D0000804023E5149453E00427F4000724949AF
:1003E00049462141494D331814127F102745454590
:1003F000393C4A49493141211109073649494936B1
:10040000464949291E000014000000403400000045
:100410000814224114141414140041221408020177
:100420005909063E415D594E7C1211127C7F4949A3
:1004300049363E414141227F4141413E7F49494940
:10044000417F090909013E414151737F0808087F36
:1004500000417F41002040413F017F081422417F3D
:10046000404040407F021C027F7F0408107F3E41D5
:1004700041413E7F090909063E4151215E7F09192C
:100480002946264949493203017F01033F40404044
:100490003F1F2040201F3F4038403F631408146333
:1004A00003047804036159494D43007F41414102EF
:1004B00004081020004141417F0402010204404031
:1004C000404040000307080020545478407F2844EF
:1004D00044383844444428384444287F38545454D9
:1004E0001800087E090218A4A49C787F08040478E8
:1004F00000447D40002040403D007F102844000023
:10050000417F40007C047804787C080404783844F7
:10051000444438FC1824241818242418FC7C0804AB
:100520000408485454542404043F44243C404020CC
:100530007C1C2040201C3C4030403C442810284477
:100540004C9090907C4464544C4400083641000028
:1005500000770000004136080002010204023C2638
:1005600023263C1EA1A161123A4040207A385454FF
:100570005559215555794121545478412155547884
:100580004020545579400C1E527212395555555918
:10059000395454545939555454580000457C41003D
:1005A00002457D420001457C40F0292429F0F028D5
:1005B0002528F07C545545002054547C547C0A096D
:1005C0007F4932494949323248484832324A4848DC
:1005D000303A4141217A3A42402078009DA0A07DE6
:1005E00039444444393D4040403D3C24FF242448A4
:1005F0007E4943662B2FFC2F2BFF0929F620C0884C
:100600007E090320545479410000447D413048481C
:100610004A32384040227A007A0A0A727D0D193136
:100620007D2629292F28262929292630484D402092
:10063000380808080808080808382F10C8ACBA2F6E
:10064000102834FA00007B000008142A1422221417
:100650002A1408AA005500AAAA55AA55AA00000003
:10066000FF00101010FF00141414FF001010FF0002
:10067000FF1010F010F0141414FC001414F700FF15
:100680000000FF00FF1414F404FC141417101F10D2
:10069000101F101F1414141F00101010F000000081
:1006A000001F101010101F10101010F0100000008C
:1006B000FF101010101010101010FF10000000FF9D
:1006C000140000FF00FF00001F10170000FC04F4DE
:1006D00014141710171414F404F40000FF00F71496
:1006E000141414141414F700F7141414171410101D
:1006F0001F101F141414F4141010F010F000001F39
:10070000101F0000001F14000000FC140000F01077
:10071000F01010FF10FF141414FF141010101F001D
:10072000000000F010FFFFFFFFFFF0F0F0F0F0FF1F
:10073000FFFF0000000000FFFF0F0F0F0F0F3844F6
:100740004438447C2A2A3E147E02020606027E02B7
:100750007E0263554941633844443C04407E201E78
:100760002006027E020299A5E7A5991C2A492A1CA7
:100770004C7201724C304A4D4D303048784830BC94
:10078000625A463D3E494949007E0101017E2A2ABE
:100790002A2A2A44445F444440514A444040444A3F
:1007A00051400000FF0103E080FF000008086B6B70
:1007B000083612362436060F090F060000181800F6
:1007C00000001010003040FF0101001F01011E0059
:1007D000191D1712003C3C3C3C00000000002006A4
:1007E0000308C50AB30EC319CC1C1B0611241FBE77
:1007F000CFEFDAE0DEBFCDBF15E0A0E0B1E0ECE87E
:10080000FFE302C005900D92AA3AB107D9F717E0AD
:10081000AAEAB5E001C01D92AF34B107E1F717E0D5
:10082000CAEED7E004C02297FE010E947F1FCE3D92
:10083000D107C9F727D30C94BA1FE2CBCF93DF932C
:10084000BC018230910510F462E070E0A0914D0788
:10085000B0914E07ED01E0E0F0E040E050E021C053
:10086000888199818617970769F48A819B813097DF
:1008700019F09383828304C090934E0780934D07B1
:10088000FE0134C06817790738F44115510519F095
:100890008417950708F4AC01FE018A819B819C01B5
:1008A000E9012097E9F641155105A9F1CA01861B16
:1008B000970B049708F4BA01E0E0F0E02AC08D91AC
:1008C0009C91119784179507F9F46417750781F4C3
:1008D00012968D919C911397309719F09383828390
:1008E00004C090934E0780934D07FD0132964CC093
:1008F000CA01861B970BFD01E80FF91F61937193E5
:1009000002978D939C9340C0FD01828193819C014D
:10091000D9011097A1F680914B0790914C07892B34
:1009200041F4809113019091140190934C078093AE
:100930004B0740911501509116014115510541F4A5
:100940004DB75EB78091110190911201481B590B70
:1009500020914B0730914C07CA01821B930B8617DD
:10096000970780F0AB014E5F5F4F8417950750F0FB
:10097000420F531F50934C0740934B07F90161936B
:10098000719302C0E0E0F0E0CF01DF91CF910895D4
:10099000CF93DF93009709F450C0EC0122971B829C
:1009A0001A82A0914D07B0914E07109709F140E0CF
:1009B00050E0AC17BD0708F1BB83AA83FE0121916B
:1009C0003191E20FF31FAE17BF0779F48D919C911F
:1009D0001197280F391F2E5F3F4F398328831296B6
:1009E0008D919C9113979B838A834115510571F4D6
:1009F000D0934E07C0934D0720C012968D919C91C5
:100A00001397AD01009711F0DC01D3CFFA01D38326
:100A1000C28321913191E20FF31FCE17DF0769F4F2
:100A200088819981280F391F2E5F3F4FFA0131834A
:100A300020838A819B8193838283DF91CF91089564
:100A4000A0E0B0E0E6E2F5E00C94851F6C010097B1
:100A500021F4CB01F3DE6C01BDC08EEF882E8FEF49
:100A6000982E8C0C9D1C8601060F171F0815190562
:100A700008F4AEC0F401A081B181A617B707B0F0A9
:100A8000A530B10508F4A6C0CD01049786179707D5
:100A900008F4A0C01297A61BB70BF801A193B1935D
:100AA000D4016D937C93CF0173DF94C07B01EA1A6C
:100AB000FB0AEEEFFFEFEE0EFF1E36016A0E7B1E05
:100AC000C0914D07D0914E0744245524AA24BB243D
:100AD0004AC0C615D705E1F5488159814E155F0515
:100AE000B8F1CA0104978E159F05B0F41296A40FB1
:100AF000B51FF401B183A0832A813B8141145104C5
:100B000031F0D20113963C932E93129763C0309329
:100B10004E0720934D075EC08A819B81F801938325
:100B20008283425050404E195F09518340834114E3
:100B3000510431F0D20113961C930E93129704C006
:100B400010934E0700934D07F4017183608342C0F8
:100B500088819981A816B90608F45C012E018A8162
:100B60009B819C01E901209709F0B3CF80914B074D
:100B700090914C0786159705E9F4A616B706D0F4B0
:100B800020911501309116012115310541F42DB741
:100B90003EB78091110190911201281B390B021769
:100BA0001307B0F410934C0700934B07D4016D93D7
:100BB0007C9310C0CB0142DEEC01009749F0F401B8
:100BC00040815181B6010CD0C601E2DE6E0102C047
:100BD000CC24DD24C601CDB7DEB7E0E10C94A11F23
:100BE000FB01DC0102C001900D9241505040D8F74A
:100BF0000895FB01DC0101900D920020E1F70895BA
:100C00008130910579F46F5F7F4FA1F48AEA95E016
:100C100064E04CE026E00E9465148FEF95E060E010
:100C200071E05BC6892B31F46F5F7F4F19F48FEF52
:100C300095E083C6089580E090E06FEF7FEFE0CF0E
:100C400081E090E06FEF7FEFDBCF8F929F92AF92CA
:100C5000BF92CF92DF92EF92FF920F931F93AAEA77
:100C60008A2EA5E09A2EC4010E9480199C01C4011D
:100C700060E070E047E350E001E010E00E94890F7F
:100C8000C40161E00E946E19C40168E070E048E3AD
:100C900050E020E130E008E310E0F8E0EF2EF12C26
:100CA000E0E4CE2ED12CB1E0AB2EB12C0E94DE16AA
:100CB000C40160E070E048E350E028E030E008E084
:100CC00010E0A1E0EA2EF12C0E948E16C40160E033
:100CD00070E00E947419C40162E070E048E350E0E3
:100CE0000E94681901E011E0C401B80191D5C40166
:100CF00063E070E048E350E00E946819C401B80165
:100D000087D5C40161E070E00E947419C40164E3F6
:100D100070E048E350E00E946819C40163E071E0AC
:100D200077D5C40160E770E048E350E028E730E0A1
:100D300008E310E0F8E7EF2EF12C0E94DE16C40164
:100D400068E770E048E350E028E030E008E010E0B9
:100D5000E1E0EE2EF12C0E948E16C40160E070E0FE
:100D60000E947419C40169E770E048E350E00E94F2
:100D7000681908E011E0C401B8014AD5C40168E768
:100D800070E048E350E00E946819C401B80140D502
:100D9000C4010E94C0121F910F91FF90EF90DF904D
:100DA000CF90BF90AF909F908F9008954ECF0895B1
:100DB00080E0C8D58091170160E0C7D58091190106
:100DC00060E0C3D580911B0160E0BFD580911D011B
:100DD00061E0BBD58091FD0561E0B7D58AEA95E079
:100DE00062E04CE321E00E946B138AEA95E00E94E6
:100DF000C01268EE73E080E090E0BCD68AEA95E02D
:100E00000E9428128AEA95E064E00E946E198AEA3C
:100E100095E061E070E00E9474198AEA95E060E074
:100E20000E947A190E940D1C882329F48FEF95E007
:100E30006AE071E004C08FEF95E06DE071E066D587
:100E40008EEA9CE10E94F81BE5EDF5E0119211920B
:100E500085E0ED3FF807D1F788E796E060E070E0C5
:100E60000E94760F8A3018F01092060602C0809316
:100E70000606409106064F5F88E796E060E070E066
:100E80000C947D0FCF93DF93CED68FE096E0BCD04D
:100E90008FDFC0E0D0E08ADF2097E9F30E940000F6
:100EA000FACF282F809109068823C1F057FF1AC076
:100EB00015C02898909308068091F1008193E2175D
:100EC000F307B9F74115510539F08091F2008823F5
:100ED00019F48BE68093E800AFBF02C04FEF5FEFDD
:100EE000CA010895AFB7F89427702093E900809164
:100EF000F200282F30E0241735070CF4A901FB017C
:100F00009B01240F311D94E6DACFDF93CF930F922C
:100F1000CDB7DEB7BE016F5F7F4F41E050E0C1DF6C
:100F2000019719F02FEF3FEF03C08981282F30E0A0
:100F3000C9010F90CF91DF910895FF920F931F93F6
:100F4000F82E142F052F40910C0650910D06212FDD
:100F5000302FC901DC01FB016EEF29C0F7FE02C092
:100F6000949101C0908120910A0630910B062417BC
:100F70003507ACF48091E8008570E1F38091E800DA
:100F800082FF03C02FEF3FEF17C09093F100C9011C
:100F900001968F739070892B11F46093E8002F5F96
:100FA0003F4F30930B0620930A0611973196109706
:100FB000A9F6812F902F9C01C9011F910F91FF90DD
:100FC00008959C018091E80082FFFCCFF901260F73
:100FD000311D03C08091F1008193E217F307D1F72F
:100FE000289884E6809308068BEF8093E800CB0175
:100FF00008958093E9008091F200882319F08AE334
:101000008093E800089508951092090681E0809386
:10101000D70080EA8093D80082E189BD09B400FE40
:10102000FDCF61E070E080E090E0A4D580E980939E
:10103000D8008CE08093E2001092E000559A209A4C
:1010400008955F926F927F928F929F92AF92BF921C
:10105000CF92DF92EF92FF920F931F93CF93DF9384
:10106000E82E842E752E80910906882371F18B015C
:10107000242F352FC901EC017AEFF72E67E0962E69
:101080009E2050E4552E8E2D90E040E2A42EB12CEF
:10109000A822B9223AE3632E20E4C22ED12CC82222
:1010A000D92257C09FB7F8949092E9008091E80048
:1010B00085FD02C020E004C08091F200252D281B90
:1010C0009FBF222359F4FA9419F42FEF3FEF4CC03D
:1010D00061E070E080E090E04DD53BC0822F90E071
:1010E000C817D9070CF42C2FC21BD1094FB7F8949D
:1010F0009092E900A114B10421F406C01092F1000D
:1011000021502223D9F719C0E7FC03C0F801922F20
:1011100010C0C801322F06C0FC010196E491E09393
:10112000F10031503323C1F706C081918093F10063
:1011300091509923D1F7020F111D8091E80085FF8E
:1011400005C0209729F4C114D10411F06092E80081
:101150004FBF209709F0A6CF5D9884E680930706DD
:10116000282D372DC9019C01C901DF91CF911F9115
:101170000F91FF90EF90DF90CF90BF90AF909F9036
:101180008F907F906F905F9008951F920F920FB68F
:101190000F9211242F933F934F935F936F937F93FD
:1011A0008F939F93AF93BF93EF93FF938091E10051
:1011B0001092E100982F83FF0FC01092E90081E0A8
:1011C0008093EB001092EC0082E38093ED0010928C
:1011D000090688E08093F00092FF33C083E080939B
:1011E000E9008091F200882319F08AE38093E800F7
:1011F0008FB7F89492E09093E9009091F2008FBF3E
:10120000992319F08AE696E0EED5809107068823A7
:1012100051F0809107068150809307068091070660
:10122000882309F45D9A80910806882351F0809103
:10123000080681508093080680910806882309F4E7
:10124000289AFF91EF91BF91AF919F918F917F91DC
:101250006F915F914F913F912F910F900FBE0F9023
:101260001F9018950F931F93DF93CF930F92CDB7D5
:10127000DEB719828E010F5F1F4FC801D9D5C80193
:1012800077D2898190E00F90CF91DF911F910F91DC
:1012900008951F920F920FB60F921124EF92FF92B2
:1012A0001F932F933F934F935F936F937F938F93EE
:1012B0009F93AF93BF93EF93FF93DF93CF93CDB7FC
:1012C000DEB76197DEBFCDBF1092E9008091E800E4
:1012D00083FF08C1FE0131969E01275F3F4F03C087
:1012E0008091F1008193E217F307D1F7289884E603
:1012F0008093080682EF8093E800998197FF05C0EC
:101300008091E80080FFFCCF03C08EEF8093E8005F
:10131000292F30E0C90180769070892B09F0BDC07B
:101320008A81882329F41092F1001092F100CFC035
:10133000813009F4CCC0833009F4C9C0853049F448
:101340008091E80080FFFCCF8B8180688093E30070
:10135000BEC0863009F077C01C81EF80F88412305F
:10136000A9F51092E90010920B0610920A0610924D
:101370000D0610920C0676DF99E0FE013996DF012A
:10138000292F1D922A95E9F799871A8791E09E8760
:1013900090E8988B9AEF998B20910A0630910B0672
:1013A000275F3F4F3C872B878D871092E900109273
:1013B0000B0610920A06F0920D06E0920C0680E0F1
:1013C000BF0149E050E0B9DD4DDF81C01092E90076
:1013D00010920B0610920A06F0920D06E0920C068F
:1013E000123239F482E290E0BDD1892B09F473C046
:1013F0006EC0113079F488E0E816F10419F481E048
:1014000080930E0680910E06882309F068C0EAEEEC
:10141000F0E013C0133009F05EC08B81882319F40B
:10142000ECEAF0E00AC0823019F4E0EBF0E005C02D
:10143000813009F050C0E2EDF0E0449180E8BF0156
:1014400050E07BDD44C0873009F445C0883021F48A
:1014500081E08093F1003BC08930C9F52370307082
:10146000232BC9F5EFE0F1E091E031E026E3909322
:10147000E9003093EB0084918093EC002093ED0021
:101480009F5F3196953099F78EE78093EA0010922E
:10149000EA008B81809309061AC08F81988510928B
:1014A000E90010920B0610920A0690930D068093A5
:1014B0000C068D81882321F4CE010196C3D405C08A
:1014C000823049F4CE01019626D0882321F08EEF98
:1014D0008093E80007C081E28093EB0003C0ECEF4B
:1014E000F0E0ABCF6196DEBFCDBFCF91DF91FF9132
:1014F000EF91BF91AF919F918F917F916F915F918C
:101500004F913F912F911F91FF90EF900F900FBE41
:101510000F901F901895FC0191818081813A31F4E0
:10152000913089F080E0933089F40DC0813269F404
:101530009B3021F4828180931F0105C09A3029F4E9
:1015400082818093200181E0089580E00895EF92E8
:10155000FF920F931F938C01E62EDC01ED91FC911D
:101560000480F581E02D0995F82ED801ED91FC91CC
:101570000680F781E02DC8016E2D09958F2D90E032
:101580001F910F91FF90EF90089510921006109206
:1015900014061092130682E495E09093120680934D
:1015A00011060895EF92FF920F931F93DF93CF934D
:1015B0000F92CDB7DEB789838B017A0184E0BE013B
:1015C0006F5F7F4F41E050E03CDD84E4B801A7014C
:1015D00038DD0F90CF91DF911F910F91FF90EF9029
:1015E000089582E048E050E0DDCFFC0116821782CA
:1015F000108611861286138614823496BF01F1CFAD
:10160000DC01683810F0685829C0E62FF0E067FF69
:1016100013C0E058F04081E090E002C0880F991FAD
:10162000EA95E2F7809514962C9114972823149646
:101630002C93149760E012C0EF56FE4F649166231E
:1016400019F420E030E01CC067FF08C014968C91AC
:1016500014978D7F14968C9314976F77FD0190E00B
:10166000662321F08681861709F416829F5F3196E2
:101670009630B1F7CD011496BD01B3DF21E030E023
:10168000C9010895CF93DF93DC01683810F06858E2
:1016900025C0E62FF0E067FF12C0E058F04081E07F
:1016A00090E002C0880F991FEA95E2F714962C91FA
:1016B0001497282B14962C93149760E00FC0EF56C4
:1016C000FE4F64916623D9F167FF08C014968C9190
:1016D0001497826014968C9314976F7716968C915A
:1016E00016978617A9F117968C911797861781F18F
:1016F00018968C911897861759F119968C9119970D
:10170000861731F11A968C911A97861709F11B9654
:101710008C911B978617E1F0ED01E0E0F0E09E2F41
:101720008E81882321F4EA0FFB1F668306C09F5F2A
:1017300031962196E630F10591F7963049F481E033
:1017400090E013969C938E93129720E030E006C0B1
:10175000CD011496BD0145DF21E030E0C901DF91E4
:10176000CF91089580E863E171E045E650E0E5CB74
:10177000FC0180818F5F808380E868E771E049E148
:1017800050E0DBCBCF92DF92EF92FF920F931F934B
:10179000CF93DF937C016B018A01C0E0D0E00FC0E2
:1017A000D6016D916D01D701ED91FC910190F08111
:1017B000E02DC7010995C80FD91F01501040011530
:1017C000110571F7CE01DF91CF911F910F91FF901D
:1017D000EF90DF90CF900895CF93DF93EC016115E8
:1017E000710519F420E030E00FC0DB010D900020FE
:1017F000E9F71197A61BB70BE881F9810280F38105
:10180000E02DAD0109959C01C901DF91CF910895AB
:10181000E3CF08950F931F93CF93DF93EC018B01D8
:101820006F5F7F4F888199810BD9009711F480E019
:1018300005C0998388831B830A8381E0DF91CF9160
:101840001F910F910895CF93DF93EC0188819981C7
:10185000892B29F08A819B818617970758F4CE013E
:10186000D9DF882341F08C819D81892B19F4E8818F
:10187000F981108281E0DF91CF910895CF93DF93BA
:10188000EC0188819981009709F082D81982188229
:101890001D821C821B821A82DF91CF910895EF92E4
:1018A000FF920F931F93CF93DF93EC017B018A018B
:1018B000BA01C9DF882319F4CE01E0DF06C01D8319
:1018C0000C8388819981B70194D9CE01DF91CF91A2
:1018D0001F910F91FF90EF900895CF93DF93EC014C
:1018E000198218821B821A821D821C821E82611537
:1018F000710549F0DB010D900020E9F71197A61B57
:10190000B70BAD01CCDFDF91CF9108950F931F93FB
:10191000182F092F6115710551F0DB010D90002082
:10192000E9F71197A61BB70BAD01B9DF01C0A6DF20
:10193000812F902F1F910F910895FC01808191813B
:1019400027C80895809321010895CF93DF93482FEE
:1019500050E0CA01875A9D4FFC013491455C5D4FB0
:10196000FA018491882369F190E0880F991FFC01A6
:10197000EF5EFD4FA591B491FC01E15EFD4FC59175
:10198000D491662351F42FB7F8948C91932F9095AE
:1019900089238C93888189230BC0623061F42FB72F
:1019A000F8948C91932F909589238C938881832B25
:1019B00088832FBF06C09FB7F8948C91832B8C939C
:1019C0009FBFDF91CF910895883071F1893068F41D
:1019D000823031F1833020F4813009F042C01DC0E3
:1019E000833089F08430E9F512C08B3059F18C30A6
:1019F00028F48930E9F08A30A1F51EC08C3031F12D
:101A00008E3079F529C0809180008F7703C0809156
:101A100080008F7D80938000089584B58F7702C009
:101A200084B58F7D84BD0895809190008F7707C025
:101A3000809190008F7D03C080919000877F80937C
:101A4000900008958091C0008F7703C08091C000FE
:101A50008F7D8093C00008958091C200877F80931E
:101A6000C2000895FF920F931F93F62E482F50E067
:101A7000CA0189589D4FFC012491CA01875A9D4F84
:101A8000FC011491455C5D4FFA0104910023C1F003
:101A9000222311F0822F98DFE02FF0E0EE0FFF1FDE
:101AA000E15EFD4FA591B4919FB7F894FF2021F41A
:101AB0008C911095812302C08C91812B8C939FBFB8
:101AC0001F910F91FF9008951F920F920FB60F92E2
:101AD00011242F933F938F939F93AF93BF93809144
:101AE000210690912206A0912306B0912406309100
:101AF00025060196A11DB11D232F2D5F2D3720F046
:101B00002D570196A11DB11D209325068093210616
:101B100090932206A0932306B093240680911D067D
:101B200090911E06A0911F06B09120060196A11D5E
:101B3000B11D80931D0690931E06A0931F06B093BF
:101B40002006BF91AF919F918F913F912F910F9060
:101B50000FBE0F901F9018958FB7F8942091210613
:101B60003091220640912306509124068FBFB9017F
:101B7000CA0108959B01AC017FB7F89480911D06BE
:101B800090911E06A0911F06B091200666B5A89BF5
:101B900005C06F3F19F00196A11DB11D7FBFBA2F7F
:101BA000A92F982F8827860F911DA11DB11D62E0D6
:101BB000880F991FAA1FBB1F6A95D1F7BC012DC0C2
:101BC000FFB7F89480911D0690911E06A0911F0604
:101BD000B0912006E6B5A89B05C0EF3F19F001962D
:101BE000A11DB11DFFBFBA2FA92F982F88278E0FD7
:101BF000911DA11DB11DE2E0880F991FAA1FBB1FF7
:101C0000EA95D1F7861B970B885E9340C8F2215066
:101C100030404040504068517C4F2115310541050E
:101C2000510571F60895789484B5826084BD84B5B9
:101C3000816084BD85B5826085BD85B5816085BDC7
:101C4000EEE6F0E0808181608083E1E8F0E01082E0
:101C5000808182608083808181608083E0E8F0E021
:101C6000808181608083E1E9F0E08081826080830F
:101C7000808181608083E0E9F0E080818160808301
:101C8000E1ECF0E0808184608083808182608083E9
:101C9000808181608083E3ECF0E0808181608083DB
:101CA000E0ECF0E0808182608083E2ECF0E0808113
:101CB00081608083EAE7F0E08081846080838081B6
:101CC000826080838081816080838081806880835E
:101CD000089520916606309167068091680690917C
:101CE0006906281B390B2F733070C90108952091A4
:101CF00066063091670680916806909169062817FC
:101D0000390719F42FEF3FEF09C0E0916806F09111
:101D10006906EA5DF94F8081282F30E0C9010895F6
:101D20002091660630916706809168069091690659
:101D30002817390719F42FEF3FEF13C0E091680619
:101D4000F0916906EA5DF94F2081809168069091D3
:101D5000690601968F739070909369068093680668
:101D600030E0C901089510926D0610926C0688EE5D
:101D700093E0A0E0B0E080936E0690936F06A0938E
:101D80007006B093710680E595E090936B068093A2
:101D90006A0608950F931F93DF93CF930F92CDB7E9
:101DA000DEB78C01698380912901882361F083E08B
:101DB000BE016F5F7F4F41E050E043D9181619060E
:101DC00014F49C0107C081E090E0F80193838283C2
:101DD00020E030E0C9010F90CF91DF911F910F916A
:101DE000089583E006C9CF93DF9311C082E08DD8B8
:101DF0002FEF8F3F9207C9F0E0916606F0916706DA
:101E0000EA5DF94F8083D0936706C0936606C09160
:101E10006606D09167062196CF73D07080916806D0
:101E200090916906C817D90709F7DF91CF910895F6
:101E3000FC0180818E5F808380E861EA72E042E489
:101E400050E07BC8FC0181819081913A51F481324C
:101E500009F04AC080E062E271E047E050E06DD8EE
:101E600041C0913209F040C0803231F482E291E009
:101E700067E070E0A6D836C0823209F035C08281B2
:101E8000809329018091220190912301A091240146
:101E9000B0912501805B9440A040B04019F580913D
:101EA000290180FD12C087E797E79093010880938E
:101EB00000082BE088E190E00FB6F894A895809395
:101EC00060000FBE209360000DC088E10FB6F8944B
:101ED00080936000109260000FBEA89510920108D8
:101EE0001092000881E0089580E00895F999FECFEE
:101EF00072BD61BDF89A80B50895F999FECF1FBAF9
:101F000072BD61BD40BD0FB6F894FA9AF99A0FBE42
:101F10000895EF92FF920F931F93CF93DF93DC010D
:101F2000EB017A0155968C915597823061F08330A0
:101F3000F1F0813031F51496ED91FC9115973197C0
:101F4000E41BF50B31C116968D919C911797019763
:101F5000AC014E195F097A0114968D919C911597E9
:101F6000AC01461B570BEA01C21BD30B0AC01696E5
:101F70006D917C9117976C1B7D0B621B730BFA01A3
:101F800013C1F7FEAEC012C114968D919C911597A6
:101F9000E817F9070CF00AC177FF04C0260F371FB6
:101FA00060E070E016964D915C911797C901860F1D
:101FB000971F481759071CF49A01261B370B121656
:101FC00013060CF0F3C0962F862F8695869586957E
:101FD000A82FB0E0B695BA2FAA27B795A795A65D0A
:101FE000BE4FAE0FBF1F977071F138E0391B432F02
:101FF00050E0FA01EE5CFA4FE081231750F4421BE7
:1020000051098FEF90E002C0959587954A95E2F7C8
:10201000E8230130110539F00130110538F00230A4
:10202000110559F407C08C918E2B06C0E0958C9158
:102030008E2302C08C918E278C93231708F4B6C090
:10204000231BA058BF4F283060F10230110559F40E
:10205000FD01922F808180958083E058FF4F98503A
:102060009830C0F70EC00130110511F090E001C0AA
:102070009FEFFD01822F9083E058FF4F88508830FA
:10208000D0F7822F8850282F2770869586958695C1
:1020900090E001969695982F882797958795A80F99
:1020A000B91F222309F482C0E22FF0E0E770F0703C
:1020B000E65DFA4F20810130110541F00130110534
:1020C00040F00230110509F071C008C08C91822BDC
:1020D00003C020958C9182238C9368C08C918227B9
:1020E000FBCF16968D919C911797E816F9060CF088
:1020F0005DC0D7FF04C02C0F3D1FC0E0D0E0149698
:102100004D915C911597C9018C0F9D1F4817590778
:102110001CF49A012C1B3D0B121613060CF046C042
:10212000C70168E070E00E94561FDB01B695BA2F28
:10213000AA27B795A795A65DBE4FAC0FBD1F57E068
:10214000E522FF2481E090E002C0880F991FEA9405
:10215000E2F7982F0130110551F00130110570F0B0
:102160000230110519F519C08C91892B8D932150DE
:1021700030408FEF2F3F3807B9F718C0909503C054
:102180008C9189238D93215030404FEF2F3F34079E
:10219000B9F70CC08C9189278D93215030405FEFA7
:1021A0002F3F3507B9F702C0F7FFEECEDF91CF9191
:1021B0001F910F91FF90EF9008950F931F93CF936E
:1021C000DF93DC01E90155968C915597823071F0CF
:1021D000833001F1813039F514962D913C9115979A
:1021E000241B350B2C1B3D0BFB012BC114968D9131
:1021F0009C91159701979C01261B370BB9011696E8
:102200008D919C9117979C01241B350BA9014C1BA8
:102210005D0B09C01696ED91FC9117973197E61B5F
:10222000F70B9A010EC177FF61C00DC116968D9113
:102230009C911797E817F9070CF005C137FF04C008
:10224000C20FD31F20E030E014964D915C9115979A
:10225000CE01820F931F481759071CF4EA01C21BD5
:10226000D30B1C161D060CF0EEC0CF0168E070E029
:102270000E94561FDB01B695BA2FAA27B795A795DE
:10228000A65DBE4FA20FB31FE770F07081E090E033
:1022900002C0880F991FEA95E2F7982F01301105C7
:1022A00059F00130110570F00230110509F0CBC072
:1022B00017C08C91892B8D9321973FEFCF3FD30788
:1022C000C1F7C1C0909503C08C9189238D9321974C
:1022D0008FEFCF3FD807C1F7B6C08C9189278D9378
:1022E00021972FEFCF3FD207C1F7ADC014968D9144
:1022F0009C911597681779070CF0A5C057FF04C08B
:10230000C40FD51F40E050E016962D913C911797D1
:10231000CE01840F951F281739071CF4E901C41B4F
:10232000D50B1C161D060CF08EC02C2F842F869505
:1023300086958695A82FB0E0B695BA2FAA27B795AF
:10234000A795A65DBE4FA60FB71F477071F138E085
:10235000341B432F50E0FA01EE5CFA4FE081C317C3
:1023600050F44C1B51098FEF90E002C09595879572
:102370004A95E2F7E8230130110539F001301105E3
:1023800038F00230110559F407C08C918E2B06C02D
:10239000E0958C918E2302C08C918E278C9323170D
:1023A00008F451C0231BA058BF4F283060F1023001
:1023B000110559F4FD01922F808180958083E058AA
:1023C000FF4F98509830C0F70EC00130110511F042
:1023D00090E001C09FEFFD01822F9083E058FF4FF6
:1023E00088508830D0F7822F8850282F2770869504
:1023F0008695869590E001969695982F88279795D3
:102400008795A80FB91F2223F1F0E22FF0E0E770C3
:10241000F070E65DFA4F20810130110539F001308E
:10242000110538F00230110571F407C08C91822B30
:1024300006C020958C91822302C08C9182278C93B8
:1024400002C0F7FFF3CEDF91CF911F910F91089556
:1024500080E094E0EAE2F1E0DF019C011D9221506E
:102460003040E1F708951F93DC01162F59968C91A7
:1024700059978F3F09F469C09396ED91FC91949719
:10248000808199969C919997892B80839596ED915F
:10249000FC91969790819A968C919A978095892332
:1024A00080839396ED91FC919497908199968C916D
:1024B00099978095892380835E968C915E97882377
:1024C00031F06EBD0DB407FEFDCF8EB534C030E8DF
:1024D00040E050E070E09196ED91FC9192979081F0
:1024E00098968C919897809589238083832F90E08C
:1024F000862397235F96ED91FC91909797962C9168
:102500009797892B21F08081822B808304C0808162
:102510002095282320839196ED91FC9192978081BC
:1025200098969C919897892B808336954F5F5F4F43
:102530004830510581F69396ED91FC9194978081F6
:1025400099969C91892B808313C057966C9177271D
:1025500067FD70958FEB96E0DCD68FEB96E060E040
:1025600059D78FEB96E0612F55D78FEB96E093D735
:102570001F910895662311F067EA01C066EA73CFE0
:10258000CF92DF92EF92FF920F931F93CF93DF933F
:10259000EC0161E268DFCE0160E065DFCE016FE74C
:1025A00062DFCE0162E25FDFCE0160E05CDFCE0180
:1025B00067E059DF898D8F3F09F454C0EBA1FCA17E
:1025C000808199A5892B8083EDA1FEA180819AA5A8
:1025D000892B8083EBA1FCA1908189A5809589231B
:1025E0008083AAE2B1E09C918E8D882331F09EBD5C
:1025F0000DB407FEFDCF8EB529C030E840E050E0B5
:10260000692F70E0E9A1FAA1908188A580958923BE
:102610008083832F90E086239723EF8DF8A12FA14D
:10262000892B21F08081822B808304C080812095BA
:1026300028232083E9A1FAA1808198A5892B808392
:1026400036954F5F5F4F48305105E1F6119685E0B2
:10265000AA32B80741F6EBA1FCA1808199A5892B8C
:10266000808330C00091B8008CE08093B800EE24E5
:10267000FF246F89772767FD70958FEB96E049D629
:102680008FEB96E060E4C6D65AE2C52E51E0D52E17
:10269000CE0CDF1C10E08FEB96E0F60161916F012C
:1026A000B9D61F5F1031B9F780E190E0E80EF91E4E
:1026B0008FEB96E0F0D690E0E91694E0F906C9F6C3
:1026C0000093B800DF91CF911F910F91FF90EF9091
:1026D000DF90CF9008950F931F93CF93DF93EC017A
:1026E000162F022F688F4F8B898D8F3F09F473C08F
:1026F0008B8D61E02AD98D8D61E027D9ED8D2E2F4C
:10270000332727FD3095F901E55CFD4FE491F0E0BA
:10271000EE0FFF1FE15EFD4F859194919CA38BA36B
:10272000275A3D4FF901849189A7EB8D2E2F33272E
:1027300027FD3095F901E55CFD4FE491F0E0EE0FE7
:10274000FF1FE15EFD4F859194919EA38DA3275AB3
:102750003D4FF90184918AA78E8D882309F034C0FA
:10276000898D61E0F2D88A8D61E0EFD8EA8D2E2F55
:10277000332727FD3095F901E55CFD4FE491F0E04A
:10278000EE0FFF1FE15EFD4F859194919AA389A3FF
:10279000275A3D4FF901849188A7E98D2E2F3327C1
:1027A00027FD3095F901E55CFD4FE491F0E0EE0F77
:1027B000FF1FE15EFD4F8591949198A38F8F275A5B
:1027C0003D4FF90184918FA38E8D882339F08DD6EA
:1027D00084E07AD603C08FEB96E06DD60023B1F08B
:1027E0008C8D61E0B2D88C8D61E03CD961E070E005
:1027F00080E090E0BFD98C8D60E034D96AE070E071
:1028000080E090E0B7D98C8D61E02CD9CE016EEAE2
:102810002ADECE0165ED27DECE0160E824DECE01A2
:1028200068EA21DECE016FE31EDECE0163ED1BDE22
:10283000CE0160E018DECE0160E415DECE016DE869
:1028400012DE113019F4CE0160E102C0CE0164E164
:102850000ADECE0160E207DECE0160E004DECE01DA
:1028600061EA01DECE0168ECFEDDCE016AEDFBDD42
:10287000CE0162E1F8DDCE0161E8F5DD113019F439
:10288000CE016FE902C0CE016FECEDDDCE0169ED46
:10289000EADD113019F4CE0162E202C0CE0161EF2F
:1028A000E2DDCE016BEDDFDDCE0160E4DCDDCE01EB
:1028B00064EAD9DDCE0166EAD6DDCE016FEAD3DD6A
:1028C000DF91CF911F910F910895DF92EF92FF92C8
:1028D0000F931F938C01F62EE42ED22E60E870E049
:1028E00040E450E0C2D082E695E0F8019183808315
:1028F000F38EE48ED58E81E0868F1F910F91FF902D
:10290000EF90DF900895CF92DF92EF92FF920F93B6
:102910001F93CF93DF938C017B01EA01690177FD5F
:102920009BC0EED4E816F9060CF096C0D7FD94C013
:10293000C801EAD4C817D9070CF08EC081C0F801CD
:102940008481958101978C1B9D0BE7017C0118C048
:10295000F8018481958101979C012E193F09790125
:10296000868197810197FC01EC1BFD0BEF0108C0EC
:10297000F8018681978101978E199F097E01EC01EC
:10298000F1E0CF16D10451F021E0C216D10400F1DC
:1029900032E0C316D10409F05FC036C0CE0168E052
:1029A00070E00E94561FFB01F695FE2FEE27F7956B
:1029B000E795EE0DFF1DE65DFE4FC770D07002C0BB
:1029C000CC0CDD1CCA95E2F780818C29808344C041
:1029D000CE0168E070E00E94561FFB01F695FE2FC5
:1029E000EE27F795E795EE0DFF1DE65DFE4FC770EC
:1029F000D07081E090E002C0880F991FCA95E2F77D
:102A00008095208128231AC0CE0168E070E00E94E2
:102A1000561FFB01F695FE2FEE27F795E795EE0D75
:102A2000FF1DE65DFE4FC770D07081E090E002C0F0
:102A3000880F991FCA95E2F72081282720830CC0B0
:102A4000C8015BD4823009F483CF833009F490CF7E
:102A5000813009F095CF73CFDF91CF911F910F9106
:102A6000FF90EF90DF90CF900895FC0113821282C7
:102A70008AE795E0918380837583648357834683D7
:102A80007187608753874287158A15861486178653
:102A9000168621E0248B8FEF9FEF938B828B918B97
:102AA000808B268B08952F923F924F925F926F9268
:102AB0007F928F929F92AF92BF92CF92DF92EF92CE
:102AC000FF920F931F93DF93CF9300D000D0CDB729
:102AD000DEB73C017C836B836A015901FA82E9828B
:102AE000222433249801241B350B37FF03C0309573
:102AF00021953F4FC5014B815C81841B950B97FF4E
:102B000003C0909581959F4F821793075CF481E0F5
:102B1000282E312CC601CB80DC809C838B83C8019E
:102B200085015C018B819C81A816B90644F4C5011E
:102B3000AB80BC809C838B83C80186016C0125011E
:102B4000AB81BC814A1A5B0A7801EC18FD08F7FEDC
:102B500004C0F094E194F108F394C016D10624F077
:102B600088248A94982C03C0B1E08B2E912CC2014A
:102B700062E070E00E94561F8B0125C0D301ED91E9
:102B8000FC912114310441F00480F581E02DC30152
:102B9000B6014B815C8107C00480F581E02DC30143
:102BA0006B817C81A60129813A8109950E191F0943
:102BB00017FF04C0C80CD91C040D151DEB81FC8146
:102BC0003196FC83EB834B815C81A416B506B4F689
:102BD0000F900F900F900F90CF91DF911F910F9159
:102BE000FF90EF90DF90CF90BF90AF909F908F902D
:102BF0007F906F905F904F903F902F9008954F92ED
:102C00005F926F927F928F929F92AF92BF92CF927C
:102C1000DF92EF92FF920F931F936C015B014A01C9
:102C200039012801DC01ED91FC910284F385E02D4E
:102C300087010995D601ED91FC91A40141505040C6
:102C4000440D551D0284F385E02DC601B5019301A5
:102C50000995D601ED91FC910084F185E02DC60126
:102C6000B501A40192010995D601ED91FC9108945A
:102C7000A108B108A60CB71C0084F185E02DC6019F
:102C8000B501A401920109951F910F91FF90EF905A
:102C9000DF90CF90BF90AF909F908F907F906F907C
:102CA0005F904F900895CF92DF92EF92FF920F9333
:102CB0001F93DC016B017801ED91FC918A010150B9
:102CC0001040020F131F0680F781E02D9601099531
:102CD0001F910F91FF90EF90DF90CF900895CF92CA
:102CE000DF92EF92FF920F931F93DC016A01C901FB
:102CF0007801ED91FC9111979B0121503040280FF4
:102D0000391F0680F781E02DCD01860109951F91BD
:102D10000F91FF90EF90DF90CF9008956F927F9288
:102D20008F929F92AF92BF92CF92DF92EF92FF92DB
:102D30000F931F93CF93DF935C013A016901480120
:102D4000EB01C60ED71E0DC0D501ED91FC9100849C
:102D5000F185E02DC501BE01A3019401870109950C
:102D60002196CC15DD0584F3DF91CF911F910F9152
:102D7000FF90EF90DF90CF90BF90AF909F908F909B
:102D80007F906F900895EF92FF920F931F93FC0135
:102D90007B01A081B18120853185028513851E9636
:102DA0000D90BC91A02D60E070E040E050E0FD018E
:102DB00009951F910F91FF90EF9008952F923F92E8
:102DC0004F925F926F927F928F929F92AF92BF923B
:102DD000CF92DF92EF92FF920F931F93DF93CF93E7
:102DE000CDB7DEB766970FB6F894DEBF0FBECDBF86
:102DF000988B8F872B013A0149011C8B0B8B160195
:102E0000BA8AA98A041715073CF44B0129018B895A
:102E10009C895C8B4B8B3C012B893C8922163306A9
:102E200044F4C70174014C01C1012B883C889C8B80
:102E30008B8B4B895C894615570544F4C4014201CC
:102E40002C018B899C897C8A6B8A3C0162147304F7
:102E500049F5841495041CF4B401920108C0481487
:102E600059041CF4B201940102C0B2019201E616A9
:102E7000F70614F4B70104C02E153F050CF49701B2
:102E8000AF85B889ED91FC9111972F5F3F4F261BBD
:102E9000370B0284F385E02DCD01A30109891A893E
:102EA0000995BAC0F401E419F509FC87EB872B8971
:102EB0003C89261937093A872987A70144195509FA
:102EC00058874F83C101861997099E838D83D70147
:102ED000A819B909BC83AB83F1012B893C89E21B9A
:102EE000F30BFA83E9832215330519F43E872D8706
:102EF00006C04B895C89415050405E874D87730105
:102F0000AA24BB24CC24DD2432C0C50169857A857E
:102F1000CDD79B01240D351DC6016D817E81C6D79D
:102F2000DB01A40DB51DA217B3071CF4CD01D90117
:102F30009C018B859C85A80EB91EEF81F885CE0E6D
:102F4000DF1EEF85F889808191811196A21BB30B5A
:102F5000FC010284F385E02D8F859889B901A701D2
:102F60009D0109891A8909950894E11CF11C2D8598
:102F70003E852E153F054CF6C7014B895C89841BA5
:102F8000950BAB81BC818A9F60018B9FD00C9A9F6F
:102F9000D00C1124C70186199709EF81F8858E9FFF
:102FA00030018F9F700C9E9F700C112432C0C6019F
:102FB00069817A817BD79B01280D391DC3016D8101
:102FC0007E8174D7DB01A40DB51DA217B3071CF4D5
:102FD000CD01D9019C014B815C81C40ED51E8F812E
:102FE0009885680E791EEF85F88980819181119608
:102FF000A21BB30BFC01A284B3848F859889B9010D
:10300000A7019D0109891A89F50109950894E11C18
:10301000F11C2E143F045CF666960FB6F894DEBFE2
:103020000FBECDBFCF91DF911F910F91FF90EF9019
:10303000DF90CF90BF90AF909F908F907F906F90D8
:103040005F904F903F902F9008952F923F924F9214
:103050005F926F927F928F929F92AF92BF92CF9228
:10306000DF92EF92FF920F931F93DF93CF93CDB731
:10307000DEB72F970FB6F894DEBF0FBECDBF5C0151
:103080005E834D8318870F83FA86E986CB86DC0141
:1030900018968D919C911997681779070CF0A4C028
:1030A0001A968D919C911B97481759070CF09CC05C
:1030B000EC2DF0E0FF87EE87CF01880F991F8E0F70
:1030C0009F1F880F991F860F971F181619060CF05F
:1030D0008BC0CF01F3E0880F991FFA95E1F7840FB9
:1030E000951F181619060CF07FC085E0289FA001D7
:1030F00011245A8349832B011B011C825C815530AA
:1031000011F480E005C0E981FA81ED51FD4F849111
:103110002C863D866D807E8043011B82C82EDD2477
:1031200080FF1CC0D501ED91FC91BB85B13049F405
:103130000480F581E02DC501B201A3012F813885FE
:1031400022C00684F785E02DC5016C857D85A4012C
:103150002E853F858901EF80F88423C0E985FA85B3
:103160002F813885E217F307E9F0D501ED91FC9145
:10317000BB85B13051F40480F581E02DC501B20169
:10318000A30129853A8509950DC00684F785E02DB0
:10319000C5016C857D85A4012E853F858901E98463
:1031A000FA840995EB81EF5FEB832E853F85820ED4
:1031B000931E0894611C711CE83021F0D594C794CB
:1031C0008C2DACCF3C813F5F3C834E855F85240EC8
:1031D000351E0894411C511C89819A8101969A835D
:1031E0008983363009F08ACF2F960FB6F894DEBF68
:1031F0000FBECDBFCF91DF911F910F91FF90EF9048
:10320000DF90CF90BF90AF909F908F907F906F9006
:103210005F904F903F902F900895CF92EF92FF9242
:103220000F931F93CF93DF93EC01262F6A3061F445
:103230002C8930E003E0220F331F0A95E1F78E85D9
:103240009F85820F931F36C06D30C1F16C857D85DF
:103250004E855F8508891989EA88FB88CC88F5DE68
:103260002C8986E0289FB00111248C859D85680FEC
:10327000791F7D876C878E89882301F1422F50E06A
:103280008AEF9FEF9C01429FC001439F900D529F88
:10329000900D112428853985820F931F8617970773
:1032A0006CF413E0440F551F1A95E1F78E859F8546
:1032B000840F951F9F878E871D861C8681E090E076
:1032C000DF91CF911F910F91FF90EF90CF900895D4
:1032D000FC0175876487578746870895FC0166233C
:1032E00009F461E0648B0895FC01738B628B718B30
:1032F000608B0895FC01668B0895FC018589089513
:10330000FC01808591850895FC018285938508954F
:10331000089581E08093BE0660939B061092BC06E0
:103320001092BD06089520919A0630E0809199068A
:10333000281B3109C90108954091990680919A0688
:10334000481718F02FEF3FEF0AC0E42FF0E0E758DE
:10335000F94F8081282F30E04F5F40939906C901D3
:103360000895E091990680919A06E81718F0EFEF1A
:10337000FFEF06C0F0E0E758F94F8081E82FF0E05A
:10338000CF01089508951092C2061092C10688EEEA
:1033900093E0A0E0B0E08093C3069093C406A093AE
:1033A000C506B093C60682E995E09093C006809367
:1033B000BF060895CF92DF92EF92FF920F931F9373
:1033C000CF93DF937C016B018A018091BE06882335
:1033D000A1F0C0E0D0E00DC0D701ED91FC91D60185
:1033E000AC0FBD1F0190F081E02DC7016C910995D4
:1033F0002196C017D10780F303C0CB01642F6DD392
:10340000C801DF91CF911F910F91FF90EF90DF9056
:10341000CF900895DF93CF930F92CDB7DEB7FC0125
:1034200069838091BE068823C9F08091BD068032F1
:1034300038F081E090E09383828320E030E014C094
:103440008091BC06E82FF0E0E456F94F9981908313
:103450008F5F8093BC068093BD0604C0CE010196A9
:1034600061E03BD321E030E0C9010F90CF91DF91C3
:1034700008950F93062F80919B066CE976E04091AA
:10348000BD0621E0D5D21092BC061092BD06109266
:10349000BE060F91089561E0ECCF413208F040E2A2
:1034A000862F69E776E07BD21092990680939A0680
:1034B000089521E0F2CF1092990610929A06109288
:1034C000BC061092BD06B5C42CB5382F33702C7FC6
:1034D000322B3CBD2DB590E09595879595958795B8
:1034E00081702E7F822B8DBD089581E161E00E9465
:1034F000320D81E161E00E94A50C8CB580618CBD2C
:103500008CB580648CBD8FE061E00E94A50C80E1E9
:1035100061E00C94A50C4F925F926F927F928F9214
:103520009F92AF92BF92CF92DF92EF92FF920F9352
:103530001F93CF93DF934C01DC0116961C91612FF2
:1035400070E080E090E020E833E341EE51E08FD47A
:103550005B016C0122EB37E0E12FF0E0EE54F84F15
:103560001BC0C90183709070892BA1F4C90164E666
:1035700070E09CD4892B31F4C90160E971E096D4E4
:10358000892B41F480E891E5A1E0B0E0A80EB91ED6
:10359000CA1EDB1E2F5F3F4F2E173F0711F7D401C6
:1035A00015968C91482E5524C90164E670E07ED4AE
:1035B0007C01C90160E971E079D48C01C1E0D0E0FF
:1035C00093E0692E712C6222732226C0C230D1058D
:1035D00091F46114710479F4E114F10419F4011502
:1035E000110549F480E89BE3A6E2B0E0A80EB91EFD
:1035F000CA1EDB1E10C0FE01E356FA4F608170E068
:1036000080E090E020E831E541E050E030D4A60EC3
:10361000B71EC81ED91E2196C415D505BCF2D4010B
:1036200012966C9170E080E090E020E13EE040E096
:1036300050E01DD47B018C01F401618170E080E0D9
:1036400090E02CE330E040E050E011D4E60EF71EAD
:10365000081F191FD4018C91E80EF11C011D111DCA
:1036600014966C9170E061507040882777FD8095CA
:10367000982F20E831E541E050E0F9D3E60EF71E3F
:10368000081F191FEA0CFB1C0C1D1D1DB701C801EA
:10369000DF91CF911F910F91FF90EF90DF90CF902E
:1036A000BF90AF909F908F907F906F905F904F9062
:1036B00008956093CD067093CE068093CF069093C5
:1036C000D00620913A0530913B0540913C05509140
:1036D0003D05260F371F481F591F2093D1063093F1
:1036E000D2064093D3065093D40682E090E09093A4
:1036F000D6068093D5060E94AC0D6093D7067093D2
:10370000D8068093D9069093DA060895EF92FF9237
:103710000F931F931CC02F5F3F4F4F4F5F4F20935E
:10372000CD063093CE064093CF065093D00688EE58
:1037300093E0A0E0B0E0E80EF91E0A1F1B1FE09224
:10374000D706F092D8060093D9061093DA060E94A5
:10375000AC0DE090D706F090D8060091D9061091F4
:10376000DA066E197F09800B910B2091CD063091FE
:10377000CE064091CF065091D006685E73408040DF
:10378000904048F68091D1069091D206A091D30640
:10379000B091D406281739074A075B07E0F0E0919B
:1037A000CB06F091CC063097B1F009956115710503
:1037B0008105910511F07DDF0EC020E030E08091A1
:1037C000D5069091D606892B11F021E030E0309398
:1037D000D6062093D5066091CD067091CE068091D5
:1037E000CF069091D0061F910F91FF90EF90089512
:1037F0009093CC068093CB068091CD069091CE0617
:10380000A091CF06B091D0068093D1069093D206B6
:10381000A093D306B093D40679CF88E690E0909336
:10382000DC068093DB068FEB96E068E670E071DDE6
:103830008FEB96E060E0EEDD8FEB96E02CDE8823E8
:10384000C1F08FE690E09093DC068093DB068FEB6F
:1038500096E06FE670E05DDD8FEB96E060E0DADD2C
:103860008FEB96E018DE882321F01092DC06109290
:10387000DB0608951F93CF93DF93EC016091DB0685
:103880007091DC066115710509F464C08FEB96E058
:1038900040DD8FEB96E060E0BDDD8FEB96E0FBDD79
:1038A0006091DB067091DC068FEB96E047E050E01C
:1038B00000DE8FEB96E040DD282F2F7722952F70CA
:1038C0001AE0219F900111248F70820F88838FEB63
:1038D00096E032DD282F22952F70219F9001112430
:1038E0008F70820F89838FEB96E026DD282F2F7350
:1038F00022952F70219F900111248F70820F8A834F
:103900008FEB96E019DD87708B838FEB96E014DDEB
:10391000282F22952F70219F900111248F70820FE4
:103920008C838FEB96E008DD282F22952F70219F46
:10393000900111248F70820F8D838FEB96E0FCDC59
:10394000282F2F70225E82958F70819FC0011124D5
:10395000280F2E83DF91CF911F9108950F931F930E
:10396000DF93CF93CDB7DEB727970FB6F894DEBFBE
:103970000FBECDBF8E010F5F1F4FC8017BDFC80197
:10398000CADD27960FB6F894DEBF0FBECDBFCF912C
:10399000DF911F910F9108958FEB96E08CCD382F1A
:1039A000413210F040E042C08091DD068823E1F70B
:1039B00091E09093DD062093DF068FEF80934A0716
:1039C000109205074150409306074F5F9093DE0623
:1039D0008091DE06330F832B8093DE068091E00614
:1039E000813041F41092E0068091DE068093BB00A6
:1039F00085EC01C085EE8093BC008091DD068130AE
:103A0000E1F380910507841710F44091050720E049
:103A100030E00AC0FB01E20FF31FD901AB51B94FEF
:103A20008C9180832F5F3F4F2417A0F3842F08953C
:103A30000F931F93582F122F413210F081E04AC08C
:103A40008091DD068823E1F782E08093DD06009314
:103A5000DF068FEF80934A07109205074093060711
:103A6000A5EEB6E0FB0102C081918D938E2F861BDF
:103A70008417D0F31092DE068091DE06550F852B59
:103A80008093DE068091E006813041F41092E006DA
:103A90008091DE068093BB0085EC01C085EE8093AB
:103AA000BC00112321F08091DD068230E1F380918A
:103AB0004A078F3F11F480E00DC080914A078032A1
:103AC00011F482E007C080914A07803311F084E04E
:103AD00001C083E01F910F910895482F613210F0CB
:103AE00081E008958091DD06843011F082E0089530
:103AF00060932807A7E0B7E0842F9C01F90102C07A
:103B000081918D938E2F841B8617D0F380E00895CA
:103B10001F920F920FB60F9211242F933F934F9342
:103B20005F936F937F938F939F93AF93BF93EF9325
:103B3000FF938091B90090E0887F90708036910566
:103B400009F4F2C081369105CCF58832910509F46B
:103B50007BC089329105B4F48031910509F46FC0BE
:103B6000813191053CF4009709F447C1089709F0A9
:103B70004FC165C08831910509F466C0809709F08E
:103B800047C182C08034910509F4A4C081349105F5
:103B900044F48033910509F482C0C89709F038C114
:103BA00089C08035910509F489C08835910509F4EB
:103BB00096C08834910509F02BC1AEC088399105B3
:103BC00009F413C189399105ECF48837910509F49A
:103BD000ABC0893791054CF48836910509F4A4C02F
:103BE0008037910509F014C19FC08838910509F408
:103BF000FCC08039910509F49DC08038910509F019
:103C000007C198C0803B910509F4C6C0813B91056E
:103C10004CF4803A910509F49FC0883A910509F067
:103C2000F7C0BAC0803C910509F4E3C0883C910517
:103C300009F4DFC0883B910509F0EAC0C2C0809159
:103C4000DE068093BB00CFC09091050780910607E8
:103C5000981768F490910507E92FF0E0EB51F94FC0
:103C600080818093BB009F5F90930507BCC08091CB
:103C7000DF06882309F44BC085ED8093BC0080915A
:103C8000BC0084FDFCCFC2C080E280934A0785ED72
:103C90008093BC008091BC0084FDFCCFB7C080E362
:103CA00080934A0785ED8093BC008091BC0084FD21
:103CB000FCCFACC088E380934A079BC08091050786
:103CC0009091BB00E82FF0E0EB51F94F90838F5FAC
:103CD00080930507909105078091060782C0809127
:103CE00005079091BB00E82FF0E0EB51F94F90836E
:103CF0008F5F809305078091DF06882341F085ED73
:103D00008093BC008091BC0084FDFCCF7FC081E02B
:103D10008093E00684EA6EC085ED8093BC008091BC
:103D2000BC0084FDFCCF72C083E08093DD0610925E
:103D3000490759C080914907803208F056C08091E8
:103D400049079091BB00E82FF0E0E75DF84F9083C2
:103D50008F5F8093490747C080914907803230F4D4
:103D6000E0914907F0E0E75DF84F108285ED809320
:103D7000BC008091BC0084FDFCCF1092DD066091F8
:103D80004907E091E306F091E40689E297E070E0EC
:103D90000995109249072DC084E08093DD061092AA
:103DA000270710922807E091E106F091E2060995B5
:103DB00080912807882329F481E0809328071092B6
:103DC000070790912707E92FF0E0E95FF84F80811E
:103DD0008093BB009F5F9093270790912707809166
:103DE0002807981710F485EC01C085E88093BC0083
:103DF0000FC085EC8093BC0009C010924A0785ED86
:103E00008093BC008091BC0084FDFCCF1092DD0645
:103E1000FF91EF91BF91AF919F918F917F916F91A2
:103E20005F914F913F912F910F900FBE0F901F9078
:103E300018951092DD0681E08093DF061092E0066F
:103E400082E061E00E94320D83E061E00E94320D69
:103E5000E9EBF0E080818E7F808380818D7F80839D
:103E600088E48093B80085E48093BC000895629F45
:103E7000D001739FF001829FE00DF11D649FE00D62
:103E8000F11D929FF00D839FF00D749FF00D659FC3
:103E9000F00D9927729FB00DE11DF91F639FB00DC2
:103EA000E11DF91FBD01CF011124089597FB092ED3
:103EB00007260AD077FD04D00CD006D000201AF4D3
:103EC000709561957F4F0895F6F7909581959F4F76
:103ED0000895AA1BBB1B51E107C0AA1FBB1FA61751
:103EE000B70710F0A61BB70B881F991F5A95A9F7A3
:103EF00080959095BC01CD010895EE0FFF1F0590B0
:103F0000F491E02D09942F923F924F925F926F921D
:103F10007F928F929F92AF92BF92CF92DF92EF9259
:103F2000FF920F931F93CF93DF93CDB7DEB7CA1BDA
:103F3000DB0B0FB6F894DEBF0FBECDBF09942A8805
:103F4000398848885F846E847D848C849B84AA84AD
:103F5000B984C884DF80EE80FD800C811B81AA813A
:103F6000B981CE0FD11D0FB6F894DEBF0FBECDBF05
:103F7000ED01089517E0CAEED7E003C0FE01BFDFF0
:0C3F80002296CC3ED107D1F7F894FFCF79
:103F8C00003C004D656E75003E006F6E006F6666FE
:103F9C000020004F0700000A000900080001000182
:103FAC00010100E100000000000000000000000022
:103FBC0000000000000000000000000000000000F5
:103FCC0000000000000000000000000000000000E5
:103FDC0000000000000000000000000000000000D5
:103FEC000000000000000000008080800000000045
:103FFC0000000000000000000000008080C0C00035
:10400C0000000000000000000000000000000000A4
:10401C000000000000000000000000000000000094
:10402C000000000000000000000000000000000084
:10403C00000000000000000000000000000080C034
:10404C00E0F0F8FCF8E000000000000000000000C8
:10405C0000000000000000808080808000808000D4
:10406C00000000808080808000FFFFFF00000000C7
:10407C008080808000008080000080FFFF808000B6
:10408C0080800080808080008080000000000080A4
:10409C008000008C8E84000080F8F8F8800000000E
:1040AC0000000000000000000000F0F0F0F0F0F064
:1040BC00F0F0F0F0F0F0E0E0C08000E0FCFEFFFF7C
:1040CC00FF7FFFFFFFFFFF0000000000000000006B
:1040DC000000000000FEFFC70101010183FFFF008B
:1040EC00007CFEC70101010183FFFFFF0038FEC702
:1040FC008301010183C7FFFF000001FFFF010100E5
:10410C00FFFF0701010100007FFF80000000FFFF9F
:10411C007F0000FFFFFF000001FFFFFF0100000018
:10412C0000000000000000000000030F3F7F7FFF35
:10413C00FFFFFFFFFFFFE7C7C78F8F9FBFFFFFC3C7
:10414C00C0F0FFFFFFFFFFFCFCFCFCFCFCFCFCF8E0
:10415C00F8F0F0E0C00001030303030301030300C4
:10416C00000000010303030301010301000000012F
:10417C000303030301010303000000030300000019
:10418C00030300000000000000010303030303010C
:10419C000000000103010000000303010000000007
:1041AC000000000000000000000000000080C0E0E3
:1041BC00F0F9FFFFFFFFFF3F1F0F87C7F7FFFF1F40
:1041CC001F3DFCF8F8F8F87C7DFFFFFFFFFFFFFFB9
:1041DC00FF7F3F0F070030300000000000000000A0
:1041EC000000000000000000000000000000FEFEC7
:1041FC00FC000000000000000000000000000000B7
:10420C0000000000000000E0C00000000000000002
:10421C000000000030300000000000000000000032
:10422C000000000000000000000000C0FEFFFFFFC7
:10423C00FFFFFFFFFFFF7F7F3F1F0F071F7FFFFF6A
:10424C00F8F8FFFFFFFFFFFEF8E0000000010000A0
:10425C00000000000000FEFE000000FCFEFC0C064E
:10426C00060EFCF80000F0F81C0E0606060CFFFF0C
:10427C00FF0000FEFE00000000FCFEFC00183C7E6F
:10428C0066E6CE84000006FFFF0606FCFEFC0C066C
:10429C0006060000FEFE0000C0F8FC4E4646464EE8
:1042AC007C7840183C76E6CECC8000000000000004
:1042BC0000000000000000000000000000000107EA
:1042CC000F1F1F3F3F3F3F1F0F0300000000000068
:1042DC000000000000000F0F0000000F0F0F000087
:1042EC0000000F0F000003070E0C18180C060F0F20
:1042FC000F0000010F0E0C180C0F070100040E0C20
:10430C00180C0F070000000F0F00000F0F0F00001C
:10431C00000000000F0F00000007070C0C181C0C0D
:10432C00060600040E0C180C0F070000000000001D
:10433C000000000000000000000000000000000071
:10434C000000000000000000000000000000000061
:10435C000000000000000000000000000000000051
:10436C000000000000000000000000000000000041
:10437C000000000000000000000000000000000031
:10438C000000000000000000000000000000000021
:10439C000000000000000000000000000000000011
:1043AC0000000000000000000000000103070F1FC8
:1043BC003F7F0080C0E0F0F8FCFE2C010000000004
:1043CC000000A70AC20B420B000BF50A000000000C
:1043DC00CA0EC20B690E900E770EF10EF30E000092
:1043EC0000000D19C20B83145315DD10890FFF1536
:1043FC008E16C316BA12000000000D19C20BA10CC8
:10440C00531553166F16FF158E16C3168819000018
:10441C0000000A1ADA1993199C19B119C2191F1C38
:0A442C001F1E1F1E1F1F1E1F1E1F54
:00000001FF
